{
	"data": {
		"bytecode": {
			"linkReferences": {},
			"object": "60c060405234801561000f575f5ffd5b50604051610a8f380380610a8f83398101604081905261002e91610046565b6001600160a01b03909116608052151560a05261008d565b5f5f60408385031215610057575f5ffd5b82516001600160a01b038116811461006d575f5ffd5b60208401519092508015158114610082575f5ffd5b809150509250929050565b60805160a0516109b16100de5f395f81816101040152818161030b0152818161037e01526104ee01525f8181606901528181610216015281816102dc0152818161047a015261067101526109b15ff3fe608060405234801561000f575f5ffd5b5060043610610060575f3560e01c806316f0115b1461006457806377fc0617146100a857806389a30271146100c9578063a0eeb39a146100e4578063b25b6bd7146100ff578063fa461e3314610136575b5f5ffd5b61008b7f000000000000000000000000000000000000000000000000000000000000000081565b6040516001600160a01b0390911681526020015b60405180910390f35b6100bb6100b63660046107c6565b61014b565b60405190815260200161009f565b61008b730b2c639c533813f4aa9d7837caf62653d097ff8581565b61008b739560e827af36c94d2ac33a39bce1fe78631088db81565b6101267f000000000000000000000000000000000000000000000000000000000000000081565b604051901515815260200161009f565b610149610144366004610804565b61046f565b005b5f428310156101995760405162461bcd60e51b815260206004820152601560248201527414ddd85c08191958591b1a5b9948195e1c1a5c9959605a1b60448201526064015b60405180910390fd5b5f85116101df5760405162461bcd60e51b8152602060048201526014602482015273125b9d985b1a59081a5b9c1d5d08185b5bdd5b9d60621b6044820152606401610190565b6101ff730b2c639c533813f4aa9d7837caf62653d097ff853330886106a0565b60405163095ea7b360e01b81526001600160a01b037f000000000000000000000000000000000000000000000000000000000000000016600482015260248101869052730b2c639c533813f4aa9d7837caf62653d097ff859063095ea7b3906044016020604051808303815f875af115801561027d573d5f5f3e3d5ffd5b505050506040513d601f19601f820116820180604052508101906102a19190610880565b50604080513360208201528082018690528151808203830181526060820192839052630251596160e31b9092525f9081906001600160a01b037f0000000000000000000000000000000000000000000000000000000000000000169063128acb08906103399030907f0000000000000000000000000000000000000000000000000000000000000000908d908b908a906064016108a6565b60408051808303815f875af1158015610354573d5f5f3e3d5ffd5b505050506040513d601f19601f820116820180604052508101906103789190610909565b915091507f00000000000000000000000000000000000000000000000000000000000000006103af576103aa8261092b565b6103b8565b6103b88161092b565b93508684101561040a5760405162461bcd60e51b815260206004820152601a60248201527f496e73756666696369656e74206f757470757420616d6f756e740000000000006044820152606401610190565b610429739560e827af36c94d2ac33a39bce1fe78631088db338661070d565b604080518981526020810186905233917f2d043ce009ff53fd444b0f4f5ff4c3f4ee293265203f77f156eeb33b595dfc4f910160405180910390a2505050949350505050565b336001600160a01b037f000000000000000000000000000000000000000000000000000000000000000016146104d85760405162461bcd60e51b815260206004820152600e60248201526d24b73b30b634b21031b0b63632b960911b6044820152606401610190565b5f806104e683850185610951565b915091505f5f7f0000000000000000000000000000000000000000000000000000000000000000156105bc575f88136105585760405162461bcd60e51b8152602060048201526014602482015273496e76616c696420616d6f756e743044656c746160601b6044820152606401610190565b5f871261059e5760405162461bcd60e51b8152602060048201526014602482015273496e76616c696420616d6f756e743144656c746160601b6044820152606401610190565b50869050730b2c639c533813f4aa9d7837caf62653d097ff85610662565b5f87136106025760405162461bcd60e51b8152602060048201526014602482015273496e76616c696420616d6f756e743144656c746160601b6044820152606401610190565b5f88126106485760405162461bcd60e51b8152602060048201526014602482015273496e76616c696420616d6f756e743044656c746160601b6044820152606401610190565b50859050739560e827af36c94d2ac33a39bce1fe78631088db5b6106966001600160a01b0382167f00000000000000000000000000000000000000000000000000000000000000008461070d565b5050505050505050565b6040516001600160a01b0384811660248301528381166044830152606482018390526107079186918216906323b872dd906084015b604051602081830303815290604052915060e01b6020820180516001600160e01b038381831617835250505050610743565b50505050565b6040516001600160a01b0383811660248301526044820183905261073e91859182169063a9059cbb906064016106d5565b505050565b5f5f60205f8451602086015f885af180610762576040513d5f823e3d81fd5b50505f513d91508115610779578060011415610786565b6001600160a01b0384163b155b1561070757604051635274afe760e01b81526001600160a01b0385166004820152602401610190565b6001600160a01b03811681146107c3575f5ffd5b50565b5f5f5f5f608085870312156107d9575f5ffd5b84359350602085013592506040850135915060608501356107f9816107af565b939692955090935050565b5f5f5f5f60608587031215610817575f5ffd5b8435935060208501359250604085013567ffffffffffffffff81111561083b575f5ffd5b8501601f8101871361084b575f5ffd5b803567ffffffffffffffff811115610861575f5ffd5b876020828401011115610872575f5ffd5b949793965060200194505050565b5f60208284031215610890575f5ffd5b8151801515811461089f575f5ffd5b9392505050565b60018060a01b0386168152841515602082015283604082015260018060a01b038316606082015260a060808201525f82518060a0840152806020850160c085015e5f60c0828501015260c0601f19601f8301168401019150509695505050505050565b5f5f6040838503121561091a575f5ffd5b505080516020909101519092909150565b5f600160ff1b820161094b57634e487b7160e01b5f52601160045260245ffd5b505f0390565b5f5f60408385031215610962575f5ffd5b823561096d816107af565b94602093909301359350505056fea26469706673582212201c7f899d8cdbf26dd0ffe83f580438f626a1ee03a9005d7242036c0b48aa259964736f6c634300081d0033",
			"opcodes": "PUSH1 0xC0 PUSH1 0x40 MSTORE CALLVALUE DUP1 ISZERO PUSH2 0xF JUMPI PUSH0 PUSH0 REVERT JUMPDEST POP PUSH1 0x40 MLOAD PUSH2 0xA8F CODESIZE SUB DUP1 PUSH2 0xA8F DUP4 CODECOPY DUP2 ADD PUSH1 0x40 DUP2 SWAP1 MSTORE PUSH2 0x2E SWAP2 PUSH2 0x46 JUMP JUMPDEST PUSH1 0x1 PUSH1 0x1 PUSH1 0xA0 SHL SUB SWAP1 SWAP2 AND PUSH1 0x80 MSTORE ISZERO ISZERO PUSH1 0xA0 MSTORE PUSH2 0x8D JUMP JUMPDEST PUSH0 PUSH0 PUSH1 0x40 DUP4 DUP6 SUB SLT ISZERO PUSH2 0x57 JUMPI PUSH0 PUSH0 REVERT JUMPDEST DUP3 MLOAD PUSH1 0x1 PUSH1 0x1 PUSH1 0xA0 SHL SUB DUP2 AND DUP2 EQ PUSH2 0x6D JUMPI PUSH0 PUSH0 REVERT JUMPDEST PUSH1 0x20 DUP5 ADD MLOAD SWAP1 SWAP3 POP DUP1 ISZERO ISZERO DUP2 EQ PUSH2 0x82 JUMPI PUSH0 PUSH0 REVERT JUMPDEST DUP1 SWAP2 POP POP SWAP3 POP SWAP3 SWAP1 POP JUMP JUMPDEST PUSH1 0x80 MLOAD PUSH1 0xA0 MLOAD PUSH2 0x9B1 PUSH2 0xDE PUSH0 CODECOPY PUSH0 DUP2 DUP2 PUSH2 0x104 ADD MSTORE DUP2 DUP2 PUSH2 0x30B ADD MSTORE DUP2 DUP2 PUSH2 0x37E ADD MSTORE PUSH2 0x4EE ADD MSTORE PUSH0 DUP2 DUP2 PUSH1 0x69 ADD MSTORE DUP2 DUP2 PUSH2 0x216 ADD MSTORE DUP2 DUP2 PUSH2 0x2DC ADD MSTORE DUP2 DUP2 PUSH2 0x47A ADD MSTORE PUSH2 0x671 ADD MSTORE PUSH2 0x9B1 PUSH0 RETURN INVALID PUSH1 0x80 PUSH1 0x40 MSTORE CALLVALUE DUP1 ISZERO PUSH2 0xF JUMPI PUSH0 PUSH0 REVERT JUMPDEST POP PUSH1 0x4 CALLDATASIZE LT PUSH2 0x60 JUMPI PUSH0 CALLDATALOAD PUSH1 0xE0 SHR DUP1 PUSH4 0x16F0115B EQ PUSH2 0x64 JUMPI DUP1 PUSH4 0x77FC0617 EQ PUSH2 0xA8 JUMPI DUP1 PUSH4 0x89A30271 EQ PUSH2 0xC9 JUMPI DUP1 PUSH4 0xA0EEB39A EQ PUSH2 0xE4 JUMPI DUP1 PUSH4 0xB25B6BD7 EQ PUSH2 0xFF JUMPI DUP1 PUSH4 0xFA461E33 EQ PUSH2 0x136 JUMPI JUMPDEST PUSH0 PUSH0 REVERT JUMPDEST PUSH2 0x8B PUSH32 0x0 DUP2 JUMP JUMPDEST PUSH1 0x40 MLOAD PUSH1 0x1 PUSH1 0x1 PUSH1 0xA0 SHL SUB SWAP1 SWAP2 AND DUP2 MSTORE PUSH1 0x20 ADD JUMPDEST PUSH1 0x40 MLOAD DUP1 SWAP2 SUB SWAP1 RETURN JUMPDEST PUSH2 0xBB PUSH2 0xB6 CALLDATASIZE PUSH1 0x4 PUSH2 0x7C6 JUMP JUMPDEST PUSH2 0x14B JUMP JUMPDEST PUSH1 0x40 MLOAD SWAP1 DUP2 MSTORE PUSH1 0x20 ADD PUSH2 0x9F JUMP JUMPDEST PUSH2 0x8B PUSH20 0xB2C639C533813F4AA9D7837CAF62653D097FF85 DUP2 JUMP JUMPDEST PUSH2 0x8B PUSH20 0x9560E827AF36C94D2AC33A39BCE1FE78631088DB DUP2 JUMP JUMPDEST PUSH2 0x126 PUSH32 0x0 DUP2 JUMP JUMPDEST PUSH1 0x40 MLOAD SWAP1 ISZERO ISZERO DUP2 MSTORE PUSH1 0x20 ADD PUSH2 0x9F JUMP JUMPDEST PUSH2 0x149 PUSH2 0x144 CALLDATASIZE PUSH1 0x4 PUSH2 0x804 JUMP JUMPDEST PUSH2 0x46F JUMP JUMPDEST STOP JUMPDEST PUSH0 TIMESTAMP DUP4 LT ISZERO PUSH2 0x199 JUMPI PUSH1 0x40 MLOAD PUSH3 0x461BCD PUSH1 0xE5 SHL DUP2 MSTORE PUSH1 0x20 PUSH1 0x4 DUP3 ADD MSTORE PUSH1 0x15 PUSH1 0x24 DUP3 ADD MSTORE PUSH21 0x14DDD85C08191958591B1A5B9948195E1C1A5C9959 PUSH1 0x5A SHL PUSH1 0x44 DUP3 ADD MSTORE PUSH1 0x64 ADD JUMPDEST PUSH1 0x40 MLOAD DUP1 SWAP2 SUB SWAP1 REVERT JUMPDEST PUSH0 DUP6 GT PUSH2 0x1DF JUMPI PUSH1 0x40 MLOAD PUSH3 0x461BCD PUSH1 0xE5 SHL DUP2 MSTORE PUSH1 0x20 PUSH1 0x4 DUP3 ADD MSTORE PUSH1 0x14 PUSH1 0x24 DUP3 ADD MSTORE PUSH20 0x125B9D985B1A59081A5B9C1D5D08185B5BDD5B9D PUSH1 0x62 SHL PUSH1 0x44 DUP3 ADD MSTORE PUSH1 0x64 ADD PUSH2 0x190 JUMP JUMPDEST PUSH2 0x1FF PUSH20 0xB2C639C533813F4AA9D7837CAF62653D097FF85 CALLER ADDRESS DUP9 PUSH2 0x6A0 JUMP JUMPDEST PUSH1 0x40 MLOAD PUSH4 0x95EA7B3 PUSH1 0xE0 SHL DUP2 MSTORE PUSH1 0x1 PUSH1 0x1 PUSH1 0xA0 SHL SUB PUSH32 0x0 AND PUSH1 0x4 DUP3 ADD MSTORE PUSH1 0x24 DUP2 ADD DUP7 SWAP1 MSTORE PUSH20 0xB2C639C533813F4AA9D7837CAF62653D097FF85 SWAP1 PUSH4 0x95EA7B3 SWAP1 PUSH1 0x44 ADD PUSH1 0x20 PUSH1 0x40 MLOAD DUP1 DUP4 SUB DUP2 PUSH0 DUP8 GAS CALL ISZERO DUP1 ISZERO PUSH2 0x27D JUMPI RETURNDATASIZE PUSH0 PUSH0 RETURNDATACOPY RETURNDATASIZE PUSH0 REVERT JUMPDEST POP POP POP POP PUSH1 0x40 MLOAD RETURNDATASIZE PUSH1 0x1F NOT PUSH1 0x1F DUP3 ADD AND DUP3 ADD DUP1 PUSH1 0x40 MSTORE POP DUP2 ADD SWAP1 PUSH2 0x2A1 SWAP2 SWAP1 PUSH2 0x880 JUMP JUMPDEST POP PUSH1 0x40 DUP1 MLOAD CALLER PUSH1 0x20 DUP3 ADD MSTORE DUP1 DUP3 ADD DUP7 SWAP1 MSTORE DUP2 MLOAD DUP1 DUP3 SUB DUP4 ADD DUP2 MSTORE PUSH1 0x60 DUP3 ADD SWAP3 DUP4 SWAP1 MSTORE PUSH4 0x2515961 PUSH1 0xE3 SHL SWAP1 SWAP3 MSTORE PUSH0 SWAP1 DUP2 SWAP1 PUSH1 0x1 PUSH1 0x1 PUSH1 0xA0 SHL SUB PUSH32 0x0 AND SWAP1 PUSH4 0x128ACB08 SWAP1 PUSH2 0x339 SWAP1 ADDRESS SWAP1 PUSH32 0x0 SWAP1 DUP14 SWAP1 DUP12 SWAP1 DUP11 SWAP1 PUSH1 0x64 ADD PUSH2 0x8A6 JUMP JUMPDEST PUSH1 0x40 DUP1 MLOAD DUP1 DUP4 SUB DUP2 PUSH0 DUP8 GAS CALL ISZERO DUP1 ISZERO PUSH2 0x354 JUMPI RETURNDATASIZE PUSH0 PUSH0 RETURNDATACOPY RETURNDATASIZE PUSH0 REVERT JUMPDEST POP POP POP POP PUSH1 0x40 MLOAD RETURNDATASIZE PUSH1 0x1F NOT PUSH1 0x1F DUP3 ADD AND DUP3 ADD DUP1 PUSH1 0x40 MSTORE POP DUP2 ADD SWAP1 PUSH2 0x378 SWAP2 SWAP1 PUSH2 0x909 JUMP JUMPDEST SWAP2 POP SWAP2 POP PUSH32 0x0 PUSH2 0x3AF JUMPI PUSH2 0x3AA DUP3 PUSH2 0x92B JUMP JUMPDEST PUSH2 0x3B8 JUMP JUMPDEST PUSH2 0x3B8 DUP2 PUSH2 0x92B JUMP JUMPDEST SWAP4 POP DUP7 DUP5 LT ISZERO PUSH2 0x40A JUMPI PUSH1 0x40 MLOAD PUSH3 0x461BCD PUSH1 0xE5 SHL DUP2 MSTORE PUSH1 0x20 PUSH1 0x4 DUP3 ADD MSTORE PUSH1 0x1A PUSH1 0x24 DUP3 ADD MSTORE PUSH32 0x496E73756666696369656E74206F757470757420616D6F756E74000000000000 PUSH1 0x44 DUP3 ADD MSTORE PUSH1 0x64 ADD PUSH2 0x190 JUMP JUMPDEST PUSH2 0x429 PUSH20 0x9560E827AF36C94D2AC33A39BCE1FE78631088DB CALLER DUP7 PUSH2 0x70D JUMP JUMPDEST PUSH1 0x40 DUP1 MLOAD DUP10 DUP2 MSTORE PUSH1 0x20 DUP2 ADD DUP7 SWAP1 MSTORE CALLER SWAP2 PUSH32 0x2D043CE009FF53FD444B0F4F5FF4C3F4EE293265203F77F156EEB33B595DFC4F SWAP2 ADD PUSH1 0x40 MLOAD DUP1 SWAP2 SUB SWAP1 LOG2 POP POP POP SWAP5 SWAP4 POP POP POP POP JUMP JUMPDEST CALLER PUSH1 0x1 PUSH1 0x1 PUSH1 0xA0 SHL SUB PUSH32 0x0 AND EQ PUSH2 0x4D8 JUMPI PUSH1 0x40 MLOAD PUSH3 0x461BCD PUSH1 0xE5 SHL DUP2 MSTORE PUSH1 0x20 PUSH1 0x4 DUP3 ADD MSTORE PUSH1 0xE PUSH1 0x24 DUP3 ADD MSTORE PUSH14 0x24B73B30B634B21031B0B63632B9 PUSH1 0x91 SHL PUSH1 0x44 DUP3 ADD MSTORE PUSH1 0x64 ADD PUSH2 0x190 JUMP JUMPDEST PUSH0 DUP1 PUSH2 0x4E6 DUP4 DUP6 ADD DUP6 PUSH2 0x951 JUMP JUMPDEST SWAP2 POP SWAP2 POP PUSH0 PUSH0 PUSH32 0x0 ISZERO PUSH2 0x5BC JUMPI PUSH0 DUP9 SGT PUSH2 0x558 JUMPI PUSH1 0x40 MLOAD PUSH3 0x461BCD PUSH1 0xE5 SHL DUP2 MSTORE PUSH1 0x20 PUSH1 0x4 DUP3 ADD MSTORE PUSH1 0x14 PUSH1 0x24 DUP3 ADD MSTORE PUSH20 0x496E76616C696420616D6F756E743044656C7461 PUSH1 0x60 SHL PUSH1 0x44 DUP3 ADD MSTORE PUSH1 0x64 ADD PUSH2 0x190 JUMP JUMPDEST PUSH0 DUP8 SLT PUSH2 0x59E JUMPI PUSH1 0x40 MLOAD PUSH3 0x461BCD PUSH1 0xE5 SHL DUP2 MSTORE PUSH1 0x20 PUSH1 0x4 DUP3 ADD MSTORE PUSH1 0x14 PUSH1 0x24 DUP3 ADD MSTORE PUSH20 0x496E76616C696420616D6F756E743144656C7461 PUSH1 0x60 SHL PUSH1 0x44 DUP3 ADD MSTORE PUSH1 0x64 ADD PUSH2 0x190 JUMP JUMPDEST POP DUP7 SWAP1 POP PUSH20 0xB2C639C533813F4AA9D7837CAF62653D097FF85 PUSH2 0x662 JUMP JUMPDEST PUSH0 DUP8 SGT PUSH2 0x602 JUMPI PUSH1 0x40 MLOAD PUSH3 0x461BCD PUSH1 0xE5 SHL DUP2 MSTORE PUSH1 0x20 PUSH1 0x4 DUP3 ADD MSTORE PUSH1 0x14 PUSH1 0x24 DUP3 ADD MSTORE PUSH20 0x496E76616C696420616D6F756E743144656C7461 PUSH1 0x60 SHL PUSH1 0x44 DUP3 ADD MSTORE PUSH1 0x64 ADD PUSH2 0x190 JUMP JUMPDEST PUSH0 DUP9 SLT PUSH2 0x648 JUMPI PUSH1 0x40 MLOAD PUSH3 0x461BCD PUSH1 0xE5 SHL DUP2 MSTORE PUSH1 0x20 PUSH1 0x4 DUP3 ADD MSTORE PUSH1 0x14 PUSH1 0x24 DUP3 ADD MSTORE PUSH20 0x496E76616C696420616D6F756E743044656C7461 PUSH1 0x60 SHL PUSH1 0x44 DUP3 ADD MSTORE PUSH1 0x64 ADD PUSH2 0x190 JUMP JUMPDEST POP DUP6 SWAP1 POP PUSH20 0x9560E827AF36C94D2AC33A39BCE1FE78631088DB JUMPDEST PUSH2 0x696 PUSH1 0x1 PUSH1 0x1 PUSH1 0xA0 SHL SUB DUP3 AND PUSH32 0x0 DUP5 PUSH2 0x70D JUMP JUMPDEST POP POP POP POP POP POP POP POP JUMP JUMPDEST PUSH1 0x40 MLOAD PUSH1 0x1 PUSH1 0x1 PUSH1 0xA0 SHL SUB DUP5 DUP2 AND PUSH1 0x24 DUP4 ADD MSTORE DUP4 DUP2 AND PUSH1 0x44 DUP4 ADD MSTORE PUSH1 0x64 DUP3 ADD DUP4 SWAP1 MSTORE PUSH2 0x707 SWAP2 DUP7 SWAP2 DUP3 AND SWAP1 PUSH4 0x23B872DD SWAP1 PUSH1 0x84 ADD JUMPDEST PUSH1 0x40 MLOAD PUSH1 0x20 DUP2 DUP4 SUB SUB DUP2 MSTORE SWAP1 PUSH1 0x40 MSTORE SWAP2 POP PUSH1 0xE0 SHL PUSH1 0x20 DUP3 ADD DUP1 MLOAD PUSH1 0x1 PUSH1 0x1 PUSH1 0xE0 SHL SUB DUP4 DUP2 DUP4 AND OR DUP4 MSTORE POP POP POP POP PUSH2 0x743 JUMP JUMPDEST POP POP POP POP JUMP JUMPDEST PUSH1 0x40 MLOAD PUSH1 0x1 PUSH1 0x1 PUSH1 0xA0 SHL SUB DUP4 DUP2 AND PUSH1 0x24 DUP4 ADD MSTORE PUSH1 0x44 DUP3 ADD DUP4 SWAP1 MSTORE PUSH2 0x73E SWAP2 DUP6 SWAP2 DUP3 AND SWAP1 PUSH4 0xA9059CBB SWAP1 PUSH1 0x64 ADD PUSH2 0x6D5 JUMP JUMPDEST POP POP POP JUMP JUMPDEST PUSH0 PUSH0 PUSH1 0x20 PUSH0 DUP5 MLOAD PUSH1 0x20 DUP7 ADD PUSH0 DUP9 GAS CALL DUP1 PUSH2 0x762 JUMPI PUSH1 0x40 MLOAD RETURNDATASIZE PUSH0 DUP3 RETURNDATACOPY RETURNDATASIZE DUP2 REVERT JUMPDEST POP POP PUSH0 MLOAD RETURNDATASIZE SWAP2 POP DUP2 ISZERO PUSH2 0x779 JUMPI DUP1 PUSH1 0x1 EQ ISZERO PUSH2 0x786 JUMP JUMPDEST PUSH1 0x1 PUSH1 0x1 PUSH1 0xA0 SHL SUB DUP5 AND EXTCODESIZE ISZERO JUMPDEST ISZERO PUSH2 0x707 JUMPI PUSH1 0x40 MLOAD PUSH4 0x5274AFE7 PUSH1 0xE0 SHL DUP2 MSTORE PUSH1 0x1 PUSH1 0x1 PUSH1 0xA0 SHL SUB DUP6 AND PUSH1 0x4 DUP3 ADD MSTORE PUSH1 0x24 ADD PUSH2 0x190 JUMP JUMPDEST PUSH1 0x1 PUSH1 0x1 PUSH1 0xA0 SHL SUB DUP2 AND DUP2 EQ PUSH2 0x7C3 JUMPI PUSH0 PUSH0 REVERT JUMPDEST POP JUMP JUMPDEST PUSH0 PUSH0 PUSH0 PUSH0 PUSH1 0x80 DUP6 DUP8 SUB SLT ISZERO PUSH2 0x7D9 JUMPI PUSH0 PUSH0 REVERT JUMPDEST DUP5 CALLDATALOAD SWAP4 POP PUSH1 0x20 DUP6 ADD CALLDATALOAD SWAP3 POP PUSH1 0x40 DUP6 ADD CALLDATALOAD SWAP2 POP PUSH1 0x60 DUP6 ADD CALLDATALOAD PUSH2 0x7F9 DUP2 PUSH2 0x7AF JUMP JUMPDEST SWAP4 SWAP7 SWAP3 SWAP6 POP SWAP1 SWAP4 POP POP JUMP JUMPDEST PUSH0 PUSH0 PUSH0 PUSH0 PUSH1 0x60 DUP6 DUP8 SUB SLT ISZERO PUSH2 0x817 JUMPI PUSH0 PUSH0 REVERT JUMPDEST DUP5 CALLDATALOAD SWAP4 POP PUSH1 0x20 DUP6 ADD CALLDATALOAD SWAP3 POP PUSH1 0x40 DUP6 ADD CALLDATALOAD PUSH8 0xFFFFFFFFFFFFFFFF DUP2 GT ISZERO PUSH2 0x83B JUMPI PUSH0 PUSH0 REVERT JUMPDEST DUP6 ADD PUSH1 0x1F DUP2 ADD DUP8 SGT PUSH2 0x84B JUMPI PUSH0 PUSH0 REVERT JUMPDEST DUP1 CALLDATALOAD PUSH8 0xFFFFFFFFFFFFFFFF DUP2 GT ISZERO PUSH2 0x861 JUMPI PUSH0 PUSH0 REVERT JUMPDEST DUP8 PUSH1 0x20 DUP3 DUP5 ADD ADD GT ISZERO PUSH2 0x872 JUMPI PUSH0 PUSH0 REVERT JUMPDEST SWAP5 SWAP8 SWAP4 SWAP7 POP PUSH1 0x20 ADD SWAP5 POP POP POP JUMP JUMPDEST PUSH0 PUSH1 0x20 DUP3 DUP5 SUB SLT ISZERO PUSH2 0x890 JUMPI PUSH0 PUSH0 REVERT JUMPDEST DUP2 MLOAD DUP1 ISZERO ISZERO DUP2 EQ PUSH2 0x89F JUMPI PUSH0 PUSH0 REVERT JUMPDEST SWAP4 SWAP3 POP POP POP JUMP JUMPDEST PUSH1 0x1 DUP1 PUSH1 0xA0 SHL SUB DUP7 AND DUP2 MSTORE DUP5 ISZERO ISZERO PUSH1 0x20 DUP3 ADD MSTORE DUP4 PUSH1 0x40 DUP3 ADD MSTORE PUSH1 0x1 DUP1 PUSH1 0xA0 SHL SUB DUP4 AND PUSH1 0x60 DUP3 ADD MSTORE PUSH1 0xA0 PUSH1 0x80 DUP3 ADD MSTORE PUSH0 DUP3 MLOAD DUP1 PUSH1 0xA0 DUP5 ADD MSTORE DUP1 PUSH1 0x20 DUP6 ADD PUSH1 0xC0 DUP6 ADD MCOPY PUSH0 PUSH1 0xC0 DUP3 DUP6 ADD ADD MSTORE PUSH1 0xC0 PUSH1 0x1F NOT PUSH1 0x1F DUP4 ADD AND DUP5 ADD ADD SWAP2 POP POP SWAP7 SWAP6 POP POP POP POP POP POP JUMP JUMPDEST PUSH0 PUSH0 PUSH1 0x40 DUP4 DUP6 SUB SLT ISZERO PUSH2 0x91A JUMPI PUSH0 PUSH0 REVERT JUMPDEST POP POP DUP1 MLOAD PUSH1 0x20 SWAP1 SWAP2 ADD MLOAD SWAP1 SWAP3 SWAP1 SWAP2 POP JUMP JUMPDEST PUSH0 PUSH1 0x1 PUSH1 0xFF SHL DUP3 ADD PUSH2 0x94B JUMPI PUSH4 0x4E487B71 PUSH1 0xE0 SHL PUSH0 MSTORE PUSH1 0x11 PUSH1 0x4 MSTORE PUSH1 0x24 PUSH0 REVERT JUMPDEST POP PUSH0 SUB SWAP1 JUMP JUMPDEST PUSH0 PUSH0 PUSH1 0x40 DUP4 DUP6 SUB SLT ISZERO PUSH2 0x962 JUMPI PUSH0 PUSH0 REVERT JUMPDEST DUP3 CALLDATALOAD PUSH2 0x96D DUP2 PUSH2 0x7AF JUMP JUMPDEST SWAP5 PUSH1 0x20 SWAP4 SWAP1 SWAP4 ADD CALLDATALOAD SWAP4 POP POP POP JUMP INVALID LOG2 PUSH5 0x6970667358 0x22 SLT KECCAK256 SHR PUSH32 0x899D8CDBF26DD0FFE83F580438F626A1EE03A9005D7242036C0B48AA25996473 PUSH16 0x6C634300081D00330000000000000000 "
		},
		"gasEstimates": {
			"creation": {
				"codeDepositCost": "496200",
				"executionCost": "infinite",
				"totalCost": "infinite"
			},
			"external": {
				"USDC()": "226",
				"VELO()": "248",
				"pool()": "infinite",
				"swapExactInputSingle(uint256,uint256,uint256,uint160)": "infinite",
				"uniswapV3SwapCallback(int256,int256,bytes)": "infinite",
				"zeroForOne()": "infinite"
			}
		},
		"methodIdentifiers": {
			"USDC()": "89a30271",
			"VELO()": "a0eeb39a",
			"pool()": "16f0115b",
			"swapExactInputSingle(uint256,uint256,uint256,uint160)": "77fc0617",
			"uniswapV3SwapCallback(int256,int256,bytes)": "fa461e33",
			"zeroForOne()": "b25b6bd7"
		}
	},
	"abi": [
		{
			"inputs": [
				{
					"internalType": "address",
					"name": "_pool",
					"type": "address"
				},
				{
					"internalType": "bool",
					"name": "_zeroForOne",
					"type": "bool"
				}
			],
			"stateMutability": "nonpayable",
			"type": "constructor"
		},
		{
			"inputs": [
				{
					"internalType": "address",
					"name": "token",
					"type": "address"
				}
			],
			"name": "SafeERC20FailedOperation",
			"type": "error"
		},
		{
			"anonymous": false,
			"inputs": [
				{
					"indexed": true,
					"internalType": "address",
					"name": "user",
					"type": "address"
				},
				{
					"indexed": false,
					"internalType": "uint256",
					"name": "amountIn",
					"type": "uint256"
				},
				{
					"indexed": false,
					"internalType": "uint256",
					"name": "amountOut",
					"type": "uint256"
				}
			],
			"name": "SwapExecuted",
			"type": "event"
		},
		{
			"inputs": [],
			"name": "USDC",
			"outputs": [
				{
					"internalType": "address",
					"name": "",
					"type": "address"
				}
			],
			"stateMutability": "view",
			"type": "function"
		},
		{
			"inputs": [],
			"name": "VELO",
			"outputs": [
				{
					"internalType": "address",
					"name": "",
					"type": "address"
				}
			],
			"stateMutability": "view",
			"type": "function"
		},
		{
			"inputs": [],
			"name": "pool",
			"outputs": [
				{
					"internalType": "address",
					"name": "",
					"type": "address"
				}
			],
			"stateMutability": "view",
			"type": "function"
		},
		{
			"inputs": [
				{
					"internalType": "uint256",
					"name": "amountIn",
					"type": "uint256"
				},
				{
					"internalType": "uint256",
					"name": "amountOutMinimum",
					"type": "uint256"
				},
				{
					"internalType": "uint256",
					"name": "deadline",
					"type": "uint256"
				},
				{
					"internalType": "uint160",
					"name": "sqrtPriceLimitX96",
					"type": "uint160"
				}
			],
			"name": "swapExactInputSingle",
			"outputs": [
				{
					"internalType": "uint256",
					"name": "amountOut",
					"type": "uint256"
				}
			],
			"stateMutability": "nonpayable",
			"type": "function"
		},
		{
			"inputs": [
				{
					"internalType": "int256",
					"name": "amount0Delta",
					"type": "int256"
				},
				{
					"internalType": "int256",
					"name": "amount1Delta",
					"type": "int256"
				},
				{
					"internalType": "bytes",
					"name": "data",
					"type": "bytes"
				}
			],
			"name": "uniswapV3SwapCallback",
			"outputs": [],
			"stateMutability": "nonpayable",
			"type": "function"
		},
		{
			"inputs": [],
			"name": "zeroForOne",
			"outputs": [
				{
					"internalType": "bool",
					"name": "",
					"type": "bool"
				}
			],
			"stateMutability": "view",
			"type": "function"
		}
	]
}