{
	"velo/slipstream-main/contracts/core/VeloBot.sol": {
		"DirectPoolSwap": {
			"abi": [
				{
					"inputs": [
						{
							"internalType": "address",
							"name": "_pool",
							"type": "address"
						},
						{
							"internalType": "bool",
							"name": "_zeroForOne",
							"type": "bool"
						}
					],
					"stateMutability": "nonpayable",
					"type": "constructor"
				},
				{
					"inputs": [
						{
							"internalType": "address",
							"name": "token",
							"type": "address"
						}
					],
					"name": "SafeERC20FailedOperation",
					"type": "error"
				},
				{
					"anonymous": false,
					"inputs": [
						{
							"indexed": true,
							"internalType": "address",
							"name": "user",
							"type": "address"
						},
						{
							"indexed": false,
							"internalType": "uint256",
							"name": "amountIn",
							"type": "uint256"
						},
						{
							"indexed": false,
							"internalType": "uint256",
							"name": "amountOut",
							"type": "uint256"
						}
					],
					"name": "SwapExecuted",
					"type": "event"
				},
				{
					"inputs": [],
					"name": "USDC",
					"outputs": [
						{
							"internalType": "address",
							"name": "",
							"type": "address"
						}
					],
					"stateMutability": "view",
					"type": "function"
				},
				{
					"inputs": [],
					"name": "VELO",
					"outputs": [
						{
							"internalType": "address",
							"name": "",
							"type": "address"
						}
					],
					"stateMutability": "view",
					"type": "function"
				},
				{
					"inputs": [],
					"name": "pool",
					"outputs": [
						{
							"internalType": "address",
							"name": "",
							"type": "address"
						}
					],
					"stateMutability": "view",
					"type": "function"
				},
				{
					"inputs": [
						{
							"internalType": "uint256",
							"name": "amountIn",
							"type": "uint256"
						},
						{
							"internalType": "uint256",
							"name": "amountOutMinimum",
							"type": "uint256"
						},
						{
							"internalType": "uint256",
							"name": "deadline",
							"type": "uint256"
						},
						{
							"internalType": "uint160",
							"name": "sqrtPriceLimitX96",
							"type": "uint160"
						}
					],
					"name": "swapExactInputSingle",
					"outputs": [
						{
							"internalType": "uint256",
							"name": "amountOut",
							"type": "uint256"
						}
					],
					"stateMutability": "nonpayable",
					"type": "function"
				},
				{
					"inputs": [
						{
							"internalType": "int256",
							"name": "amount0Delta",
							"type": "int256"
						},
						{
							"internalType": "int256",
							"name": "amount1Delta",
							"type": "int256"
						},
						{
							"internalType": "bytes",
							"name": "data",
							"type": "bytes"
						}
					],
					"name": "uniswapV3SwapCallback",
					"outputs": [],
					"stateMutability": "nonpayable",
					"type": "function"
				},
				{
					"inputs": [],
					"name": "zeroForOne",
					"outputs": [
						{
							"internalType": "bool",
							"name": "",
							"type": "bool"
						}
					],
					"stateMutability": "view",
					"type": "function"
				}
			],
			"devdoc": {
				"errors": {
					"SafeERC20FailedOperation(address)": [
						{
							"details": "An operation with an ERC-20 token failed."
						}
					]
				},
				"kind": "dev",
				"methods": {
					"swapExactInputSingle(uint256,uint256,uint256,uint160)": {
						"params": {
							"amountIn": "The amount of USDC to swap",
							"amountOutMinimum": "The minimum amount of VELO to receive",
							"deadline": "The timestamp after which the transaction will revert",
							"sqrtPriceLimitX96": "The price limit for the swap (0 for no limit)"
						},
						"returns": {
							"amountOut": "The amount of VELO received"
						}
					},
					"uniswapV3SwapCallback(int256,int256,bytes)": {
						"params": {
							"amount0Delta": "The change in token0 balance (negative if we pay, positive if we receive)",
							"amount1Delta": "The change in token1 balance (negative if we pay, positive if we receive)",
							"data": "Data passed from the swap call"
						}
					}
				},
				"version": 1
			},
			"evm": {
				"assembly": "    /* \"velo/slipstream-main/contracts/core/VeloBot.sol\":521:4720  contract DirectPoolSwap {... */\n  mstore(0x40, 0xc0)\n    /* \"velo/slipstream-main/contracts/core/VeloBot.sol\":1054:1165  constructor(address _pool, bool _zeroForOne) {... */\n  callvalue\n  dup1\n  iszero\n  tag_1\n  jumpi\n  revert(0x00, 0x00)\ntag_1:\n  pop\n  mload(0x40)\n  sub(codesize, bytecodeSize)\n  dup1\n  bytecodeSize\n  dup4\n  codecopy\n  dup2\n  add\n  0x40\n  dup2\n  swap1\n  mstore\n  tag_2\n  swap2\n  tag_3\n  jump\t// in\ntag_2:\n  sub(shl(0xa0, 0x01), 0x01)\n    /* \"velo/slipstream-main/contracts/core/VeloBot.sol\":1110:1122  pool = _pool */\n  swap1\n  swap2\n  and\n  0x80\n  mstore\n    /* \"velo/slipstream-main/contracts/core/VeloBot.sol\":1133:1157  zeroForOne = _zeroForOne */\n  iszero\n  iszero\n  0xa0\n  mstore\n    /* \"velo/slipstream-main/contracts/core/VeloBot.sol\":521:4720  contract DirectPoolSwap {... */\n  jump(tag_7)\n    /* \"#utility.yul\":14:466   */\ntag_3:\n    /* \"#utility.yul\":90:96   */\n  0x00\n    /* \"#utility.yul\":98:104   */\n  0x00\n    /* \"#utility.yul\":151:153   */\n  0x40\n    /* \"#utility.yul\":139:148   */\n  dup4\n    /* \"#utility.yul\":130:137   */\n  dup6\n    /* \"#utility.yul\":126:149   */\n  sub\n    /* \"#utility.yul\":122:154   */\n  slt\n    /* \"#utility.yul\":119:171   */\n  iszero\n  tag_9\n  jumpi\n    /* \"#utility.yul\":167:168   */\n  0x00\n    /* \"#utility.yul\":164:165   */\n  0x00\n    /* \"#utility.yul\":157:169   */\n  revert\n    /* \"#utility.yul\":119:171   */\ntag_9:\n    /* \"#utility.yul\":193:209   */\n  dup3\n  mload\n  sub(shl(0xa0, 0x01), 0x01)\n    /* \"#utility.yul\":238:269   */\n  dup2\n  and\n    /* \"#utility.yul\":228:270   */\n  dup2\n  eq\n    /* \"#utility.yul\":218:288   */\n  tag_10\n  jumpi\n    /* \"#utility.yul\":284:285   */\n  0x00\n    /* \"#utility.yul\":281:282   */\n  0x00\n    /* \"#utility.yul\":274:286   */\n  revert\n    /* \"#utility.yul\":218:288   */\ntag_10:\n    /* \"#utility.yul\":357:359   */\n  0x20\n    /* \"#utility.yul\":342:360   */\n  dup5\n  add\n    /* \"#utility.yul\":336:361   */\n  mload\n    /* \"#utility.yul\":307:312   */\n  swap1\n  swap3\n  pop\n    /* \"#utility.yul\":399:414   */\n  dup1\n  iszero\n    /* \"#utility.yul\":392:415   */\n  iszero\n    /* \"#utility.yul\":380:416   */\n  dup2\n  eq\n    /* \"#utility.yul\":370:434   */\n  tag_11\n  jumpi\n    /* \"#utility.yul\":430:431   */\n  0x00\n    /* \"#utility.yul\":427:428   */\n  0x00\n    /* \"#utility.yul\":420:432   */\n  revert\n    /* \"#utility.yul\":370:434   */\ntag_11:\n    /* \"#utility.yul\":453:460   */\n  dup1\n    /* \"#utility.yul\":443:460   */\n  swap2\n  pop\n  pop\n    /* \"#utility.yul\":14:466   */\n  swap3\n  pop\n  swap3\n  swap1\n  pop\n  jump\t// out\ntag_7:\n    /* \"velo/slipstream-main/contracts/core/VeloBot.sol\":521:4720  contract DirectPoolSwap {... */\n  mload(0x80)\n  mload(0xa0)\n  codecopy(0x00, dataOffset(sub_0), dataSize(sub_0))\n  0x00\n  assignImmutable(\"0xa27402d17b909daf1a82663f44f6dcd7eb5f66f6281434d3ee65954b76026db1\")\n  0x00\n  assignImmutable(\"0x4e7cce1dba04742447559272cc79c69a1a796aae91eb6d8390351546d2d8f00d\")\n  return(0x00, dataSize(sub_0))\nstop\n\nsub_0: assembly {\n        /* \"velo/slipstream-main/contracts/core/VeloBot.sol\":521:4720  contract DirectPoolSwap {... */\n      mstore(0x40, 0x80)\n      callvalue\n      dup1\n      iszero\n      tag_1\n      jumpi\n      revert(0x00, 0x00)\n    tag_1:\n      pop\n      jumpi(tag_2, lt(calldatasize, 0x04))\n      shr(0xe0, calldataload(0x00))\n      dup1\n      0x16f0115b\n      eq\n      tag_3\n      jumpi\n      dup1\n      0x77fc0617\n      eq\n      tag_4\n      jumpi\n      dup1\n      0x89a30271\n      eq\n      tag_5\n      jumpi\n      dup1\n      0xa0eeb39a\n      eq\n      tag_6\n      jumpi\n      dup1\n      0xb25b6bd7\n      eq\n      tag_7\n      jumpi\n      dup1\n      0xfa461e33\n      eq\n      tag_8\n      jumpi\n    tag_2:\n      revert(0x00, 0x00)\n        /* \"velo/slipstream-main/contracts/core/VeloBot.sol\":587:616  address public immutable pool */\n    tag_3:\n      tag_9\n      immutable(\"0x4e7cce1dba04742447559272cc79c69a1a796aae91eb6d8390351546d2d8f00d\")\n      dup2\n      jump\n    tag_9:\n      mload(0x40)\n      sub(shl(0xa0, 0x01), 0x01)\n        /* \"#utility.yul\":178:210   */\n      swap1\n      swap2\n      and\n        /* \"#utility.yul\":160:211   */\n      dup2\n      mstore\n        /* \"#utility.yul\":148:150   */\n      0x20\n        /* \"#utility.yul\":133:151   */\n      add\n        /* \"velo/slipstream-main/contracts/core/VeloBot.sol\":587:616  address public immutable pool */\n    tag_11:\n      mload(0x40)\n      dup1\n      swap2\n      sub\n      swap1\n      return\n        /* \"velo/slipstream-main/contracts/core/VeloBot.sol\":1588:3170  function swapExactInputSingle(... */\n    tag_4:\n      tag_13\n      tag_14\n      calldatasize\n      0x04\n      tag_15\n      jump\t// in\n    tag_14:\n      tag_16\n      jump\t// in\n    tag_13:\n      mload(0x40)\n        /* \"#utility.yul\":1117:1142   */\n      swap1\n      dup2\n      mstore\n        /* \"#utility.yul\":1105:1107   */\n      0x20\n        /* \"#utility.yul\":1090:1108   */\n      add\n        /* \"velo/slipstream-main/contracts/core/VeloBot.sol\":1588:3170  function swapExactInputSingle(... */\n      tag_11\n        /* \"#utility.yul\":971:1148   */\n      jump\n        /* \"velo/slipstream-main/contracts/core/VeloBot.sol\":649:722  address public constant USDC = 0x0b2C639c533813f4Aa9D7837CAf62653d097Ff85 */\n    tag_5:\n      tag_9\n        /* \"velo/slipstream-main/contracts/core/VeloBot.sol\":680:722  0x0b2C639c533813f4Aa9D7837CAf62653d097Ff85 */\n      0x0b2c639c533813f4aa9d7837caf62653d097ff85\n        /* \"velo/slipstream-main/contracts/core/VeloBot.sol\":649:722  address public constant USDC = 0x0b2C639c533813f4Aa9D7837CAf62653d097Ff85 */\n      dup2\n      jump\n        /* \"velo/slipstream-main/contracts/core/VeloBot.sol\":749:822  address public constant VELO = 0x9560e827aF36c94D2Ac33a39bCE1Fe78631088Db */\n    tag_6:\n      tag_9\n        /* \"velo/slipstream-main/contracts/core/VeloBot.sol\":780:822  0x9560e827aF36c94D2Ac33a39bCE1Fe78631088Db */\n      0x9560e827af36c94d2ac33a39bce1fe78631088db\n        /* \"velo/slipstream-main/contracts/core/VeloBot.sol\":749:822  address public constant VELO = 0x9560e827aF36c94D2Ac33a39bCE1Fe78631088Db */\n      dup2\n      jump\n        /* \"velo/slipstream-main/contracts/core/VeloBot.sol\":849:881  bool public immutable zeroForOne */\n    tag_7:\n      tag_25\n      immutable(\"0xa27402d17b909daf1a82663f44f6dcd7eb5f66f6281434d3ee65954b76026db1\")\n      dup2\n      jump\n    tag_25:\n      mload(0x40)\n        /* \"#utility.yul\":1318:1332   */\n      swap1\n      iszero\n        /* \"#utility.yul\":1311:1333   */\n      iszero\n        /* \"#utility.yul\":1293:1334   */\n      dup2\n      mstore\n        /* \"#utility.yul\":1281:1283   */\n      0x20\n        /* \"#utility.yul\":1266:1284   */\n      add\n        /* \"velo/slipstream-main/contracts/core/VeloBot.sol\":849:881  bool public immutable zeroForOne */\n      tag_11\n        /* \"#utility.yul\":1153:1340   */\n      jump\n        /* \"velo/slipstream-main/contracts/core/VeloBot.sol\":3506:4717  function uniswapV3SwapCallback(... */\n    tag_8:\n      tag_29\n      tag_30\n      calldatasize\n      0x04\n      tag_31\n      jump\t// in\n    tag_30:\n      tag_32\n      jump\t// in\n    tag_29:\n      stop\n        /* \"velo/slipstream-main/contracts/core/VeloBot.sol\":1588:3170  function swapExactInputSingle(... */\n    tag_16:\n        /* \"velo/slipstream-main/contracts/core/VeloBot.sol\":1768:1785  uint256 amountOut */\n      0x00\n        /* \"velo/slipstream-main/contracts/core/VeloBot.sol\":1863:1878  block.timestamp */\n      timestamp\n        /* \"velo/slipstream-main/contracts/core/VeloBot.sol\":1851:1859  deadline */\n      dup4\n        /* \"velo/slipstream-main/contracts/core/VeloBot.sol\":1851:1878  deadline >= block.timestamp */\n      lt\n      iszero\n        /* \"velo/slipstream-main/contracts/core/VeloBot.sol\":1843:1904  require(deadline >= block.timestamp, \"Swap deadline expired\") */\n      tag_34\n      jumpi\n      mload(0x40)\n      shl(0xe5, 0x461bcd)\n      dup2\n      mstore\n        /* \"#utility.yul\":2370:2372   */\n      0x20\n        /* \"velo/slipstream-main/contracts/core/VeloBot.sol\":1843:1904  require(deadline >= block.timestamp, \"Swap deadline expired\") */\n      0x04\n      dup3\n      add\n        /* \"#utility.yul\":2352:2373   */\n      mstore\n        /* \"#utility.yul\":2409:2411   */\n      0x15\n        /* \"#utility.yul\":2389:2407   */\n      0x24\n      dup3\n      add\n        /* \"#utility.yul\":2382:2412   */\n      mstore\n      shl(0x5a, 0x14ddd85c08191958591b1a5b9948195e1c1a5c9959)\n        /* \"#utility.yul\":2428:2446   */\n      0x44\n      dup3\n      add\n        /* \"#utility.yul\":2421:2472   */\n      mstore\n        /* \"#utility.yul\":2489:2507   */\n      0x64\n      add\n        /* \"velo/slipstream-main/contracts/core/VeloBot.sol\":1843:1904  require(deadline >= block.timestamp, \"Swap deadline expired\") */\n    tag_35:\n      mload(0x40)\n      dup1\n      swap2\n      sub\n      swap1\n      revert\n    tag_34:\n        /* \"velo/slipstream-main/contracts/core/VeloBot.sol\":1934:1935  0 */\n      0x00\n        /* \"velo/slipstream-main/contracts/core/VeloBot.sol\":1923:1931  amountIn */\n      dup6\n        /* \"velo/slipstream-main/contracts/core/VeloBot.sol\":1923:1935  amountIn > 0 */\n      gt\n        /* \"velo/slipstream-main/contracts/core/VeloBot.sol\":1915:1960  require(amountIn > 0, \"Invalid input amount\") */\n      tag_37\n      jumpi\n      mload(0x40)\n      shl(0xe5, 0x461bcd)\n      dup2\n      mstore\n        /* \"#utility.yul\":2720:2722   */\n      0x20\n        /* \"velo/slipstream-main/contracts/core/VeloBot.sol\":1915:1960  require(amountIn > 0, \"Invalid input amount\") */\n      0x04\n      dup3\n      add\n        /* \"#utility.yul\":2702:2723   */\n      mstore\n        /* \"#utility.yul\":2759:2761   */\n      0x14\n        /* \"#utility.yul\":2739:2757   */\n      0x24\n      dup3\n      add\n        /* \"#utility.yul\":2732:2762   */\n      mstore\n      shl(0x62, 0x125b9d985b1a59081a5b9c1d5d08185b5bdd5b9d)\n        /* \"#utility.yul\":2778:2796   */\n      0x44\n      dup3\n      add\n        /* \"#utility.yul\":2771:2821   */\n      mstore\n        /* \"#utility.yul\":2838:2856   */\n      0x64\n      add\n        /* \"velo/slipstream-main/contracts/core/VeloBot.sol\":1915:1960  require(amountIn > 0, \"Invalid input amount\") */\n      tag_35\n        /* \"#utility.yul\":2518:2862   */\n      jump\n        /* \"velo/slipstream-main/contracts/core/VeloBot.sol\":1915:1960  require(amountIn > 0, \"Invalid input amount\") */\n    tag_37:\n        /* \"velo/slipstream-main/contracts/core/VeloBot.sol\":2016:2082  IERC20(USDC).safeTransferFrom(msg.sender, address(this), amountIn) */\n      tag_40\n        /* \"velo/slipstream-main/contracts/core/VeloBot.sol\":680:722  0x0b2C639c533813f4Aa9D7837CAf62653d097Ff85 */\n      0x0b2c639c533813f4aa9d7837caf62653d097ff85\n        /* \"velo/slipstream-main/contracts/core/VeloBot.sol\":2046:2056  msg.sender */\n      caller\n        /* \"velo/slipstream-main/contracts/core/VeloBot.sol\":2066:2070  this */\n      address\n        /* \"velo/slipstream-main/contracts/core/VeloBot.sol\":2073:2081  amountIn */\n      dup9\n        /* \"velo/slipstream-main/contracts/core/VeloBot.sol\":2016:2045  IERC20(USDC).safeTransferFrom */\n      tag_41\n        /* \"velo/slipstream-main/contracts/core/VeloBot.sol\":2016:2082  IERC20(USDC).safeTransferFrom(msg.sender, address(this), amountIn) */\n      jump\t// in\n    tag_40:\n        /* \"velo/slipstream-main/contracts/core/VeloBot.sol\":2093:2129  IERC20(USDC).approve(pool, amountIn) */\n      mload(0x40)\n      shl(0xe0, 0x095ea7b3)\n      dup2\n      mstore\n      sub(shl(0xa0, 0x01), 0x01)\n        /* \"velo/slipstream-main/contracts/core/VeloBot.sol\":2114:2118  pool */\n      immutable(\"0x4e7cce1dba04742447559272cc79c69a1a796aae91eb6d8390351546d2d8f00d\")\n        /* \"#utility.yul\":3059:3091   */\n      and\n        /* \"velo/slipstream-main/contracts/core/VeloBot.sol\":2093:2129  IERC20(USDC).approve(pool, amountIn) */\n      0x04\n      dup3\n      add\n        /* \"#utility.yul\":3041:3092   */\n      mstore\n        /* \"#utility.yul\":3108:3126   */\n      0x24\n      dup2\n      add\n        /* \"#utility.yul\":3101:3135   */\n      dup7\n      swap1\n      mstore\n        /* \"velo/slipstream-main/contracts/core/VeloBot.sol\":680:722  0x0b2C639c533813f4Aa9D7837CAf62653d097Ff85 */\n      0x0b2c639c533813f4aa9d7837caf62653d097ff85\n      swap1\n        /* \"velo/slipstream-main/contracts/core/VeloBot.sol\":2093:2113  IERC20(USDC).approve */\n      0x095ea7b3\n      swap1\n        /* \"#utility.yul\":3014:3032   */\n      0x44\n      add\n        /* \"velo/slipstream-main/contracts/core/VeloBot.sol\":2093:2129  IERC20(USDC).approve(pool, amountIn) */\n      0x20\n      mload(0x40)\n      dup1\n      dup4\n      sub\n      dup2\n      0x00\n      dup8\n      gas\n      call\n      iszero\n      dup1\n      iszero\n      tag_45\n      jumpi\n      returndatacopy(0x00, 0x00, returndatasize)\n      revert(0x00, returndatasize)\n    tag_45:\n      pop\n      pop\n      pop\n      pop\n      mload(0x40)\n      returndatasize\n      not(0x1f)\n      0x1f\n      dup3\n      add\n      and\n      dup3\n      add\n      dup1\n      0x40\n      mstore\n      pop\n      dup2\n      add\n      swap1\n      tag_46\n      swap2\n      swap1\n      tag_47\n      jump\t// in\n    tag_46:\n      pop\n        /* \"velo/slipstream-main/contracts/core/VeloBot.sol\":2212:2252  abi.encode(msg.sender, amountOutMinimum) */\n      0x40\n      dup1\n      mload\n        /* \"velo/slipstream-main/contracts/core/VeloBot.sol\":2223:2233  msg.sender */\n      caller\n        /* \"velo/slipstream-main/contracts/core/VeloBot.sol\":2212:2252  abi.encode(msg.sender, amountOutMinimum) */\n      0x20\n      dup3\n      add\n        /* \"#utility.yul\":3041:3092   */\n      mstore\n        /* \"#utility.yul\":3108:3126   */\n      dup1\n      dup3\n      add\n        /* \"#utility.yul\":3101:3135   */\n      dup7\n      swap1\n      mstore\n        /* \"velo/slipstream-main/contracts/core/VeloBot.sol\":2212:2252  abi.encode(msg.sender, amountOutMinimum) */\n      dup2\n      mload\n      dup1\n      dup3\n      sub\n      dup4\n      add\n      dup2\n      mstore\n        /* \"#utility.yul\":3014:3032   */\n      0x60\n      dup3\n      add\n        /* \"velo/slipstream-main/contracts/core/VeloBot.sol\":2212:2252  abi.encode(msg.sender, amountOutMinimum) */\n      swap3\n      dup4\n      swap1\n      mstore\n      shl(0xe3, 0x02515961)\n        /* \"velo/slipstream-main/contracts/core/VeloBot.sol\":2342:2696  ICLPoolActions(pool).swap(... */\n      swap1\n      swap3\n      mstore\n      0x00\n      swap1\n      dup2\n      swap1\n      sub(shl(0xa0, 0x01), 0x01)\n        /* \"velo/slipstream-main/contracts/core/VeloBot.sol\":2357:2361  pool */\n      immutable(\"0x4e7cce1dba04742447559272cc79c69a1a796aae91eb6d8390351546d2d8f00d\")\n        /* \"velo/slipstream-main/contracts/core/VeloBot.sol\":2342:2367  ICLPoolActions(pool).swap */\n      and\n      swap1\n      0x128acb08\n      swap1\n        /* \"velo/slipstream-main/contracts/core/VeloBot.sol\":2342:2696  ICLPoolActions(pool).swap(... */\n      tag_49\n      swap1\n        /* \"velo/slipstream-main/contracts/core/VeloBot.sol\":2390:2394  this */\n      address\n      swap1\n        /* \"velo/slipstream-main/contracts/core/VeloBot.sol\":2456:2466  zeroForOne */\n      immutable(\"0xa27402d17b909daf1a82663f44f6dcd7eb5f66f6281434d3ee65954b76026db1\")\n      swap1\n        /* \"velo/slipstream-main/contracts/core/VeloBot.sol\":2540:2548  amountIn */\n      dup14\n      swap1\n        /* \"velo/slipstream-main/contracts/core/VeloBot.sol\":2592:2609  sqrtPriceLimitX96 */\n      dup12\n      swap1\n        /* \"velo/slipstream-main/contracts/core/VeloBot.sol\":2212:2252  abi.encode(msg.sender, amountOutMinimum) */\n      dup11\n      swap1\n        /* \"velo/slipstream-main/contracts/core/VeloBot.sol\":2342:2696  ICLPoolActions(pool).swap(... */\n      0x64\n      add\n      tag_50\n      jump\t// in\n    tag_49:\n      0x40\n      dup1\n      mload\n      dup1\n      dup4\n      sub\n      dup2\n      0x00\n      dup8\n      gas\n      call\n      iszero\n      dup1\n      iszero\n      tag_52\n      jumpi\n      returndatacopy(0x00, 0x00, returndatasize)\n      revert(0x00, returndatasize)\n    tag_52:\n      pop\n      pop\n      pop\n      pop\n      mload(0x40)\n      returndatasize\n      not(0x1f)\n      0x1f\n      dup3\n      add\n      and\n      dup3\n      add\n      dup1\n      0x40\n      mstore\n      pop\n      dup2\n      add\n      swap1\n      tag_53\n      swap2\n      swap1\n      tag_54\n      jump\t// in\n    tag_53:\n        /* \"velo/slipstream-main/contracts/core/VeloBot.sol\":2307:2696  (int256 amount0, int256 amount1) = ICLPoolActions(pool).swap(... */\n      swap2\n      pop\n      swap2\n      pop\n        /* \"velo/slipstream-main/contracts/core/VeloBot.sol\":2774:2784  zeroForOne */\n      immutable(\"0xa27402d17b909daf1a82663f44f6dcd7eb5f66f6281434d3ee65954b76026db1\")\n        /* \"velo/slipstream-main/contracts/core/VeloBot.sol\":2774:2824  zeroForOne ? uint256(-amount1) : uint256(-amount0) */\n      tag_55\n      jumpi\n        /* \"velo/slipstream-main/contracts/core/VeloBot.sol\":2815:2823  -amount0 */\n      tag_56\n        /* \"velo/slipstream-main/contracts/core/VeloBot.sol\":2816:2823  amount0 */\n      dup3\n        /* \"velo/slipstream-main/contracts/core/VeloBot.sol\":2815:2823  -amount0 */\n      tag_57\n      jump\t// in\n    tag_56:\n        /* \"velo/slipstream-main/contracts/core/VeloBot.sol\":2774:2824  zeroForOne ? uint256(-amount1) : uint256(-amount0) */\n      jump(tag_59)\n    tag_55:\n        /* \"velo/slipstream-main/contracts/core/VeloBot.sol\":2795:2803  -amount1 */\n      tag_59\n        /* \"velo/slipstream-main/contracts/core/VeloBot.sol\":2796:2803  amount1 */\n      dup2\n        /* \"velo/slipstream-main/contracts/core/VeloBot.sol\":2795:2803  -amount1 */\n      tag_57\n      jump\t// in\n    tag_59:\n        /* \"velo/slipstream-main/contracts/core/VeloBot.sol\":2762:2824  amountOut = zeroForOne ? uint256(-amount1) : uint256(-amount0) */\n      swap4\n      pop\n        /* \"velo/slipstream-main/contracts/core/VeloBot.sol\":2899:2915  amountOutMinimum */\n      dup7\n        /* \"velo/slipstream-main/contracts/core/VeloBot.sol\":2886:2895  amountOut */\n      dup5\n        /* \"velo/slipstream-main/contracts/core/VeloBot.sol\":2886:2915  amountOut >= amountOutMinimum */\n      lt\n      iszero\n        /* \"velo/slipstream-main/contracts/core/VeloBot.sol\":2878:2946  require(amountOut >= amountOutMinimum, \"Insufficient output amount\") */\n      tag_60\n      jumpi\n      mload(0x40)\n      shl(0xe5, 0x461bcd)\n      dup2\n      mstore\n        /* \"#utility.yul\":4985:4987   */\n      0x20\n        /* \"velo/slipstream-main/contracts/core/VeloBot.sol\":2878:2946  require(amountOut >= amountOutMinimum, \"Insufficient output amount\") */\n      0x04\n      dup3\n      add\n        /* \"#utility.yul\":4967:4988   */\n      mstore\n        /* \"#utility.yul\":5024:5026   */\n      0x1a\n        /* \"#utility.yul\":5004:5022   */\n      0x24\n      dup3\n      add\n        /* \"#utility.yul\":4997:5027   */\n      mstore\n        /* \"#utility.yul\":5063:5091   */\n      0x496e73756666696369656e74206f757470757420616d6f756e74000000000000\n        /* \"#utility.yul\":5043:5061   */\n      0x44\n      dup3\n      add\n        /* \"#utility.yul\":5036:5092   */\n      mstore\n        /* \"#utility.yul\":5109:5127   */\n      0x64\n      add\n        /* \"velo/slipstream-main/contracts/core/VeloBot.sol\":2878:2946  require(amountOut >= amountOutMinimum, \"Insufficient output amount\") */\n      tag_35\n        /* \"#utility.yul\":4783:5133   */\n      jump\n        /* \"velo/slipstream-main/contracts/core/VeloBot.sol\":2878:2946  require(amountOut >= amountOutMinimum, \"Insufficient output amount\") */\n    tag_60:\n        /* \"velo/slipstream-main/contracts/core/VeloBot.sol\":2999:3047  IERC20(VELO).safeTransfer(msg.sender, amountOut) */\n      tag_63\n        /* \"velo/slipstream-main/contracts/core/VeloBot.sol\":780:822  0x9560e827aF36c94D2Ac33a39bCE1Fe78631088Db */\n      0x9560e827af36c94d2ac33a39bce1fe78631088db\n        /* \"velo/slipstream-main/contracts/core/VeloBot.sol\":3025:3035  msg.sender */\n      caller\n        /* \"velo/slipstream-main/contracts/core/VeloBot.sol\":3037:3046  amountOut */\n      dup7\n        /* \"velo/slipstream-main/contracts/core/VeloBot.sol\":2999:3024  IERC20(VELO).safeTransfer */\n      tag_64\n        /* \"velo/slipstream-main/contracts/core/VeloBot.sol\":2999:3047  IERC20(VELO).safeTransfer(msg.sender, amountOut) */\n      jump\t// in\n    tag_63:\n        /* \"velo/slipstream-main/contracts/core/VeloBot.sol\":3088:3133  SwapExecuted(msg.sender, amountIn, amountOut) */\n      0x40\n      dup1\n      mload\n        /* \"#utility.yul\":5312:5337   */\n      dup10\n      dup2\n      mstore\n        /* \"#utility.yul\":5368:5370   */\n      0x20\n        /* \"#utility.yul\":5353:5371   */\n      dup2\n      add\n        /* \"#utility.yul\":5346:5380   */\n      dup7\n      swap1\n      mstore\n        /* \"velo/slipstream-main/contracts/core/VeloBot.sol\":3101:3111  msg.sender */\n      caller\n      swap2\n        /* \"velo/slipstream-main/contracts/core/VeloBot.sol\":3088:3133  SwapExecuted(msg.sender, amountIn, amountOut) */\n      0x2d043ce009ff53fd444b0f4f5ff4c3f4ee293265203f77f156eeb33b595dfc4f\n      swap2\n        /* \"#utility.yul\":5285:5303   */\n      add\n        /* \"velo/slipstream-main/contracts/core/VeloBot.sol\":3088:3133  SwapExecuted(msg.sender, amountIn, amountOut) */\n      mload(0x40)\n      dup1\n      swap2\n      sub\n      swap1\n      log2\n        /* \"velo/slipstream-main/contracts/core/VeloBot.sol\":3146:3162  return amountOut */\n      pop\n      pop\n      pop\n        /* \"velo/slipstream-main/contracts/core/VeloBot.sol\":1588:3170  function swapExactInputSingle(... */\n      swap5\n      swap4\n      pop\n      pop\n      pop\n      pop\n      jump\t// out\n        /* \"velo/slipstream-main/contracts/core/VeloBot.sol\":3506:4717  function uniswapV3SwapCallback(... */\n    tag_32:\n        /* \"velo/slipstream-main/contracts/core/VeloBot.sol\":3704:3714  msg.sender */\n      caller\n      sub(shl(0xa0, 0x01), 0x01)\n        /* \"velo/slipstream-main/contracts/core/VeloBot.sol\":3718:3722  pool */\n      immutable(\"0x4e7cce1dba04742447559272cc79c69a1a796aae91eb6d8390351546d2d8f00d\")\n        /* \"velo/slipstream-main/contracts/core/VeloBot.sol\":3704:3722  msg.sender == pool */\n      and\n      eq\n        /* \"velo/slipstream-main/contracts/core/VeloBot.sol\":3696:3741  require(msg.sender == pool, \"Invalid caller\") */\n      tag_68\n      jumpi\n      mload(0x40)\n      shl(0xe5, 0x461bcd)\n      dup2\n      mstore\n        /* \"#utility.yul\":5593:5595   */\n      0x20\n        /* \"velo/slipstream-main/contracts/core/VeloBot.sol\":3696:3741  require(msg.sender == pool, \"Invalid caller\") */\n      0x04\n      dup3\n      add\n        /* \"#utility.yul\":5575:5596   */\n      mstore\n        /* \"#utility.yul\":5632:5634   */\n      0x0e\n        /* \"#utility.yul\":5612:5630   */\n      0x24\n      dup3\n      add\n        /* \"#utility.yul\":5605:5635   */\n      mstore\n      shl(0x91, 0x24b73b30b634b21031b0b63632b9)\n        /* \"#utility.yul\":5651:5669   */\n      0x44\n      dup3\n      add\n        /* \"#utility.yul\":5644:5688   */\n      mstore\n        /* \"#utility.yul\":5705:5723   */\n      0x64\n      add\n        /* \"velo/slipstream-main/contracts/core/VeloBot.sol\":3696:3741  require(msg.sender == pool, \"Invalid caller\") */\n      tag_35\n        /* \"#utility.yul\":5391:5729   */\n      jump\n        /* \"velo/slipstream-main/contracts/core/VeloBot.sol\":3696:3741  require(msg.sender == pool, \"Invalid caller\") */\n    tag_68:\n        /* \"velo/slipstream-main/contracts/core/VeloBot.sol\":3779:3796  address recipient */\n      0x00\n      dup1\n        /* \"velo/slipstream-main/contracts/core/VeloBot.sol\":3826:3862  abi.decode(data, (address, uint256)) */\n      tag_71\n      dup4\n      dup6\n      add\n        /* \"velo/slipstream-main/contracts/core/VeloBot.sol\":3837:3841  data */\n      dup6\n        /* \"velo/slipstream-main/contracts/core/VeloBot.sol\":3826:3862  abi.decode(data, (address, uint256)) */\n      tag_72\n      jump\t// in\n    tag_71:\n        /* \"velo/slipstream-main/contracts/core/VeloBot.sol\":3778:3862  (address recipient, uint256 amountOutMinimum) = abi.decode(data, (address, uint256)) */\n      swap2\n      pop\n      swap2\n      pop\n        /* \"velo/slipstream-main/contracts/core/VeloBot.sol\":3922:3941  uint256 amountToPay */\n      0x00\n        /* \"velo/slipstream-main/contracts/core/VeloBot.sol\":3952:3970  address tokenToPay */\n      0x00\n        /* \"velo/slipstream-main/contracts/core/VeloBot.sol\":3987:3997  zeroForOne */\n      immutable(\"0xa27402d17b909daf1a82663f44f6dcd7eb5f66f6281434d3ee65954b76026db1\")\n        /* \"velo/slipstream-main/contracts/core/VeloBot.sol\":3983:4597  if (zeroForOne) {... */\n      iszero\n      tag_73\n      jumpi\n        /* \"velo/slipstream-main/contracts/core/VeloBot.sol\":4111:4112  0 */\n      0x00\n        /* \"velo/slipstream-main/contracts/core/VeloBot.sol\":4096:4108  amount0Delta */\n      dup9\n        /* \"velo/slipstream-main/contracts/core/VeloBot.sol\":4096:4112  amount0Delta > 0 */\n      sgt\n        /* \"velo/slipstream-main/contracts/core/VeloBot.sol\":4088:4137  require(amount0Delta > 0, \"Invalid amount0Delta\") */\n      tag_74\n      jumpi\n      mload(0x40)\n      shl(0xe5, 0x461bcd)\n      dup2\n      mstore\n        /* \"#utility.yul\":6316:6318   */\n      0x20\n        /* \"velo/slipstream-main/contracts/core/VeloBot.sol\":4088:4137  require(amount0Delta > 0, \"Invalid amount0Delta\") */\n      0x04\n      dup3\n      add\n        /* \"#utility.yul\":6298:6319   */\n      mstore\n        /* \"#utility.yul\":6355:6357   */\n      0x14\n        /* \"#utility.yul\":6335:6353   */\n      0x24\n      dup3\n      add\n        /* \"#utility.yul\":6328:6358   */\n      mstore\n      shl(0x60, 0x496e76616c696420616d6f756e743044656c7461)\n        /* \"#utility.yul\":6374:6392   */\n      0x44\n      dup3\n      add\n        /* \"#utility.yul\":6367:6417   */\n      mstore\n        /* \"#utility.yul\":6434:6452   */\n      0x64\n      add\n        /* \"velo/slipstream-main/contracts/core/VeloBot.sol\":4088:4137  require(amount0Delta > 0, \"Invalid amount0Delta\") */\n      tag_35\n        /* \"#utility.yul\":6114:6458   */\n      jump\n        /* \"velo/slipstream-main/contracts/core/VeloBot.sol\":4088:4137  require(amount0Delta > 0, \"Invalid amount0Delta\") */\n    tag_74:\n        /* \"velo/slipstream-main/contracts/core/VeloBot.sol\":4175:4176  0 */\n      0x00\n        /* \"velo/slipstream-main/contracts/core/VeloBot.sol\":4160:4172  amount1Delta */\n      dup8\n        /* \"velo/slipstream-main/contracts/core/VeloBot.sol\":4160:4176  amount1Delta < 0 */\n      slt\n        /* \"velo/slipstream-main/contracts/core/VeloBot.sol\":4152:4201  require(amount1Delta < 0, \"Invalid amount1Delta\") */\n      tag_77\n      jumpi\n      mload(0x40)\n      shl(0xe5, 0x461bcd)\n      dup2\n      mstore\n        /* \"#utility.yul\":6665:6667   */\n      0x20\n        /* \"velo/slipstream-main/contracts/core/VeloBot.sol\":4152:4201  require(amount1Delta < 0, \"Invalid amount1Delta\") */\n      0x04\n      dup3\n      add\n        /* \"#utility.yul\":6647:6668   */\n      mstore\n        /* \"#utility.yul\":6704:6706   */\n      0x14\n        /* \"#utility.yul\":6684:6702   */\n      0x24\n      dup3\n      add\n        /* \"#utility.yul\":6677:6707   */\n      mstore\n      shl(0x60, 0x496e76616c696420616d6f756e743144656c7461)\n        /* \"#utility.yul\":6723:6741   */\n      0x44\n      dup3\n      add\n        /* \"#utility.yul\":6716:6766   */\n      mstore\n        /* \"#utility.yul\":6783:6801   */\n      0x64\n      add\n        /* \"velo/slipstream-main/contracts/core/VeloBot.sol\":4152:4201  require(amount1Delta < 0, \"Invalid amount1Delta\") */\n      tag_35\n        /* \"#utility.yul\":6463:6807   */\n      jump\n        /* \"velo/slipstream-main/contracts/core/VeloBot.sol\":4152:4201  require(amount1Delta < 0, \"Invalid amount1Delta\") */\n    tag_77:\n      pop\n        /* \"velo/slipstream-main/contracts/core/VeloBot.sol\":4238:4250  amount0Delta */\n      dup7\n      swap1\n      pop\n        /* \"velo/slipstream-main/contracts/core/VeloBot.sol\":680:722  0x0b2C639c533813f4Aa9D7837CAf62653d097Ff85 */\n      0x0b2c639c533813f4aa9d7837caf62653d097ff85\n        /* \"velo/slipstream-main/contracts/core/VeloBot.sol\":3983:4597  if (zeroForOne) {... */\n      jump(tag_80)\n    tag_73:\n        /* \"velo/slipstream-main/contracts/core/VeloBot.sol\":4413:4414  0 */\n      0x00\n        /* \"velo/slipstream-main/contracts/core/VeloBot.sol\":4398:4410  amount1Delta */\n      dup8\n        /* \"velo/slipstream-main/contracts/core/VeloBot.sol\":4398:4414  amount1Delta > 0 */\n      sgt\n        /* \"velo/slipstream-main/contracts/core/VeloBot.sol\":4390:4439  require(amount1Delta > 0, \"Invalid amount1Delta\") */\n      tag_81\n      jumpi\n      mload(0x40)\n      shl(0xe5, 0x461bcd)\n      dup2\n      mstore\n        /* \"#utility.yul\":6665:6667   */\n      0x20\n        /* \"velo/slipstream-main/contracts/core/VeloBot.sol\":4390:4439  require(amount1Delta > 0, \"Invalid amount1Delta\") */\n      0x04\n      dup3\n      add\n        /* \"#utility.yul\":6647:6668   */\n      mstore\n        /* \"#utility.yul\":6704:6706   */\n      0x14\n        /* \"#utility.yul\":6684:6702   */\n      0x24\n      dup3\n      add\n        /* \"#utility.yul\":6677:6707   */\n      mstore\n      shl(0x60, 0x496e76616c696420616d6f756e743144656c7461)\n        /* \"#utility.yul\":6723:6741   */\n      0x44\n      dup3\n      add\n        /* \"#utility.yul\":6716:6766   */\n      mstore\n        /* \"#utility.yul\":6783:6801   */\n      0x64\n      add\n        /* \"velo/slipstream-main/contracts/core/VeloBot.sol\":4390:4439  require(amount1Delta > 0, \"Invalid amount1Delta\") */\n      tag_35\n        /* \"#utility.yul\":6463:6807   */\n      jump\n        /* \"velo/slipstream-main/contracts/core/VeloBot.sol\":4390:4439  require(amount1Delta > 0, \"Invalid amount1Delta\") */\n    tag_81:\n        /* \"velo/slipstream-main/contracts/core/VeloBot.sol\":4477:4478  0 */\n      0x00\n        /* \"velo/slipstream-main/contracts/core/VeloBot.sol\":4462:4474  amount0Delta */\n      dup9\n        /* \"velo/slipstream-main/contracts/core/VeloBot.sol\":4462:4478  amount0Delta < 0 */\n      slt\n        /* \"velo/slipstream-main/contracts/core/VeloBot.sol\":4454:4503  require(amount0Delta < 0, \"Invalid amount0Delta\") */\n      tag_83\n      jumpi\n      mload(0x40)\n      shl(0xe5, 0x461bcd)\n      dup2\n      mstore\n        /* \"#utility.yul\":6316:6318   */\n      0x20\n        /* \"velo/slipstream-main/contracts/core/VeloBot.sol\":4454:4503  require(amount0Delta < 0, \"Invalid amount0Delta\") */\n      0x04\n      dup3\n      add\n        /* \"#utility.yul\":6298:6319   */\n      mstore\n        /* \"#utility.yul\":6355:6357   */\n      0x14\n        /* \"#utility.yul\":6335:6353   */\n      0x24\n      dup3\n      add\n        /* \"#utility.yul\":6328:6358   */\n      mstore\n      shl(0x60, 0x496e76616c696420616d6f756e743044656c7461)\n        /* \"#utility.yul\":6374:6392   */\n      0x44\n      dup3\n      add\n        /* \"#utility.yul\":6367:6417   */\n      mstore\n        /* \"#utility.yul\":6434:6452   */\n      0x64\n      add\n        /* \"velo/slipstream-main/contracts/core/VeloBot.sol\":4454:4503  require(amount0Delta < 0, \"Invalid amount0Delta\") */\n      tag_35\n        /* \"#utility.yul\":6114:6458   */\n      jump\n        /* \"velo/slipstream-main/contracts/core/VeloBot.sol\":4454:4503  require(amount0Delta < 0, \"Invalid amount0Delta\") */\n    tag_83:\n      pop\n        /* \"velo/slipstream-main/contracts/core/VeloBot.sol\":4540:4552  amount1Delta */\n      dup6\n      swap1\n      pop\n        /* \"velo/slipstream-main/contracts/core/VeloBot.sol\":780:822  0x9560e827aF36c94D2Ac33a39bCE1Fe78631088Db */\n      0x9560e827af36c94d2ac33a39bce1fe78631088db\n        /* \"velo/slipstream-main/contracts/core/VeloBot.sol\":3983:4597  if (zeroForOne) {... */\n    tag_80:\n        /* \"velo/slipstream-main/contracts/core/VeloBot.sol\":4659:4709  IERC20(tokenToPay).safeTransfer(pool, amountToPay) */\n      tag_85\n      sub(shl(0xa0, 0x01), 0x01)\n        /* \"velo/slipstream-main/contracts/core/VeloBot.sol\":4659:4690  IERC20(tokenToPay).safeTransfer */\n      dup3\n      and\n        /* \"velo/slipstream-main/contracts/core/VeloBot.sol\":4691:4695  pool */\n      immutable(\"0x4e7cce1dba04742447559272cc79c69a1a796aae91eb6d8390351546d2d8f00d\")\n        /* \"velo/slipstream-main/contracts/core/VeloBot.sol\":4697:4708  amountToPay */\n      dup5\n        /* \"velo/slipstream-main/contracts/core/VeloBot.sol\":4659:4690  IERC20(tokenToPay).safeTransfer */\n      tag_64\n        /* \"velo/slipstream-main/contracts/core/VeloBot.sol\":4659:4709  IERC20(tokenToPay).safeTransfer(pool, amountToPay) */\n      jump\t// in\n    tag_85:\n        /* \"velo/slipstream-main/contracts/core/VeloBot.sol\":3643:4717  {... */\n      pop\n      pop\n      pop\n      pop\n        /* \"velo/slipstream-main/contracts/core/VeloBot.sol\":3506:4717  function uniswapV3SwapCallback(... */\n      pop\n      pop\n      pop\n      pop\n      jump\t// out\n        /* \"@openzeppelin/contracts/token/ERC20/utils/SafeERC20.sol\":1618:1806  function safeTransferFrom(IERC20 token, address from, address to, uint256 value) internal {... */\n    tag_41:\n        /* \"@openzeppelin/contracts/token/ERC20/utils/SafeERC20.sol\":1745:1798  abi.encodeCall(token.transferFrom, (from, to, value)) */\n      mload(0x40)\n      sub(shl(0xa0, 0x01), 0x01)\n        /* \"#utility.yul\":7032:7064   */\n      dup5\n      dup2\n      and\n        /* \"@openzeppelin/contracts/token/ERC20/utils/SafeERC20.sol\":1745:1798  abi.encodeCall(token.transferFrom, (from, to, value)) */\n      0x24\n      dup4\n      add\n        /* \"#utility.yul\":7014:7065   */\n      mstore\n        /* \"#utility.yul\":7101:7133   */\n      dup4\n      dup2\n      and\n        /* \"#utility.yul\":7081:7099   */\n      0x44\n      dup4\n      add\n        /* \"#utility.yul\":7074:7134   */\n      mstore\n        /* \"#utility.yul\":7150:7168   */\n      0x64\n      dup3\n      add\n        /* \"#utility.yul\":7143:7177   */\n      dup4\n      swap1\n      mstore\n        /* \"@openzeppelin/contracts/token/ERC20/utils/SafeERC20.sol\":1718:1799  _callOptionalReturn(token, abi.encodeCall(token.transferFrom, (from, to, value))) */\n      tag_87\n      swap2\n        /* \"@openzeppelin/contracts/token/ERC20/utils/SafeERC20.sol\":1738:1743  token */\n      dup7\n      swap2\n        /* \"@openzeppelin/contracts/token/ERC20/utils/SafeERC20.sol\":1760:1778  token.transferFrom */\n      dup3\n      and\n      swap1\n      0x23b872dd\n      swap1\n        /* \"#utility.yul\":6987:7005   */\n      0x84\n      add\n        /* \"@openzeppelin/contracts/token/ERC20/utils/SafeERC20.sol\":1745:1798  abi.encodeCall(token.transferFrom, (from, to, value)) */\n    tag_88:\n      mload(0x40)\n      0x20\n      dup2\n      dup4\n      sub\n      sub\n      dup2\n      mstore\n      swap1\n      0x40\n      mstore\n      swap2\n      pop\n      0xe0\n      shl\n      0x20\n      dup3\n      add\n      dup1\n      mload\n      sub(shl(0xe0, 0x01), 0x01)\n      dup4\n      dup2\n      dup4\n      and\n      or\n      dup4\n      mstore\n      pop\n      pop\n      pop\n      pop\n        /* \"@openzeppelin/contracts/token/ERC20/utils/SafeERC20.sol\":1718:1737  _callOptionalReturn */\n      tag_90\n        /* \"@openzeppelin/contracts/token/ERC20/utils/SafeERC20.sol\":1718:1799  _callOptionalReturn(token, abi.encodeCall(token.transferFrom, (from, to, value))) */\n      jump\t// in\n    tag_87:\n        /* \"@openzeppelin/contracts/token/ERC20/utils/SafeERC20.sol\":1618:1806  function safeTransferFrom(IERC20 token, address from, address to, uint256 value) internal {... */\n      pop\n      pop\n      pop\n      pop\n      jump\t// out\n        /* \"@openzeppelin/contracts/token/ERC20/utils/SafeERC20.sol\":1219:1379  function safeTransfer(IERC20 token, address to, uint256 value) internal {... */\n    tag_64:\n        /* \"@openzeppelin/contracts/token/ERC20/utils/SafeERC20.sol\":1328:1371  abi.encodeCall(token.transfer, (to, value)) */\n      mload(0x40)\n      sub(shl(0xa0, 0x01), 0x01)\n        /* \"#utility.yul\":3059:3091   */\n      dup4\n      dup2\n      and\n        /* \"@openzeppelin/contracts/token/ERC20/utils/SafeERC20.sol\":1328:1371  abi.encodeCall(token.transfer, (to, value)) */\n      0x24\n      dup4\n      add\n        /* \"#utility.yul\":3041:3092   */\n      mstore\n        /* \"#utility.yul\":3108:3126   */\n      0x44\n      dup3\n      add\n        /* \"#utility.yul\":3101:3135   */\n      dup4\n      swap1\n      mstore\n        /* \"@openzeppelin/contracts/token/ERC20/utils/SafeERC20.sol\":1301:1372  _callOptionalReturn(token, abi.encodeCall(token.transfer, (to, value))) */\n      tag_92\n      swap2\n        /* \"@openzeppelin/contracts/token/ERC20/utils/SafeERC20.sol\":1321:1326  token */\n      dup6\n      swap2\n        /* \"@openzeppelin/contracts/token/ERC20/utils/SafeERC20.sol\":1343:1357  token.transfer */\n      dup3\n      and\n      swap1\n      0xa9059cbb\n      swap1\n        /* \"#utility.yul\":3014:3032   */\n      0x64\n      add\n        /* \"@openzeppelin/contracts/token/ERC20/utils/SafeERC20.sol\":1328:1371  abi.encodeCall(token.transfer, (to, value)) */\n      tag_88\n        /* \"#utility.yul\":2867:3141   */\n      jump\n        /* \"@openzeppelin/contracts/token/ERC20/utils/SafeERC20.sol\":1301:1372  _callOptionalReturn(token, abi.encodeCall(token.transfer, (to, value))) */\n    tag_92:\n        /* \"@openzeppelin/contracts/token/ERC20/utils/SafeERC20.sol\":1219:1379  function safeTransfer(IERC20 token, address to, uint256 value) internal {... */\n      pop\n      pop\n      pop\n      jump\t// out\n        /* \"@openzeppelin/contracts/token/ERC20/utils/SafeERC20.sol\":8370:9090  function _callOptionalReturn(IERC20 token, bytes memory data) private {... */\n    tag_90:\n        /* \"@openzeppelin/contracts/token/ERC20/utils/SafeERC20.sol\":8450:8468  uint256 returnSize */\n      0x00\n        /* \"@openzeppelin/contracts/token/ERC20/utils/SafeERC20.sol\":8478:8497  uint256 returnValue */\n      0x00\n        /* \"@openzeppelin/contracts/token/ERC20/utils/SafeERC20.sol\":8616:8620  0x20 */\n      0x20\n        /* \"@openzeppelin/contracts/token/ERC20/utils/SafeERC20.sol\":8613:8614  0 */\n      0x00\n        /* \"@openzeppelin/contracts/token/ERC20/utils/SafeERC20.sol\":8606:8610  data */\n      dup5\n        /* \"@openzeppelin/contracts/token/ERC20/utils/SafeERC20.sol\":8600:8611  mload(data) */\n      mload\n        /* \"@openzeppelin/contracts/token/ERC20/utils/SafeERC20.sol\":8593:8597  0x20 */\n      0x20\n        /* \"@openzeppelin/contracts/token/ERC20/utils/SafeERC20.sol\":8587:8591  data */\n      dup7\n        /* \"@openzeppelin/contracts/token/ERC20/utils/SafeERC20.sol\":8583:8598  add(data, 0x20) */\n      add\n        /* \"@openzeppelin/contracts/token/ERC20/utils/SafeERC20.sol\":8580:8581  0 */\n      0x00\n        /* \"@openzeppelin/contracts/token/ERC20/utils/SafeERC20.sol\":8573:8578  token */\n      dup9\n        /* \"@openzeppelin/contracts/token/ERC20/utils/SafeERC20.sol\":8566:8571  gas() */\n      gas\n        /* \"@openzeppelin/contracts/token/ERC20/utils/SafeERC20.sol\":8561:8621  call(gas(), token, 0, add(data, 0x20), mload(data), 0, 0x20) */\n      call\n        /* \"@openzeppelin/contracts/token/ERC20/utils/SafeERC20.sol\":8673:8680  success */\n      dup1\n        /* \"@openzeppelin/contracts/token/ERC20/utils/SafeERC20.sol\":8663:8839  if iszero(success) {... */\n      tag_95\n      jumpi\n        /* \"@openzeppelin/contracts/token/ERC20/utils/SafeERC20.sol\":8717:8721  0x40 */\n      0x40\n        /* \"@openzeppelin/contracts/token/ERC20/utils/SafeERC20.sol\":8711:8722  mload(0x40) */\n      mload\n        /* \"@openzeppelin/contracts/token/ERC20/utils/SafeERC20.sol\":8762:8778  returndatasize() */\n      returndatasize\n        /* \"@openzeppelin/contracts/token/ERC20/utils/SafeERC20.sol\":8759:8760  0 */\n      0x00\n        /* \"@openzeppelin/contracts/token/ERC20/utils/SafeERC20.sol\":8754:8757  ptr */\n      dup3\n        /* \"@openzeppelin/contracts/token/ERC20/utils/SafeERC20.sol\":8739:8779  returndatacopy(ptr, 0, returndatasize()) */\n      returndatacopy\n        /* \"@openzeppelin/contracts/token/ERC20/utils/SafeERC20.sol\":8808:8824  returndatasize() */\n      returndatasize\n        /* \"@openzeppelin/contracts/token/ERC20/utils/SafeERC20.sol\":8803:8806  ptr */\n      dup2\n        /* \"@openzeppelin/contracts/token/ERC20/utils/SafeERC20.sol\":8796:8825  revert(ptr, returndatasize()) */\n      revert\n        /* \"@openzeppelin/contracts/token/ERC20/utils/SafeERC20.sol\":8663:8839  if iszero(success) {... */\n    tag_95:\n      pop\n      pop\n        /* \"@openzeppelin/contracts/token/ERC20/utils/SafeERC20.sol\":8916:8917  0 */\n      0x00\n        /* \"@openzeppelin/contracts/token/ERC20/utils/SafeERC20.sol\":8910:8918  mload(0) */\n      mload\n        /* \"@openzeppelin/contracts/token/ERC20/utils/SafeERC20.sol\":8866:8882  returndatasize() */\n      returndatasize\n      swap2\n      pop\n        /* \"@openzeppelin/contracts/token/ERC20/utils/SafeERC20.sol\":8942:8957  returnSize == 0 */\n      dup2\n      iszero\n        /* \"@openzeppelin/contracts/token/ERC20/utils/SafeERC20.sol\":8942:9010  returnSize == 0 ? address(token).code.length == 0 : returnValue != 1 */\n      tag_96\n      jumpi\n        /* \"@openzeppelin/contracts/token/ERC20/utils/SafeERC20.sol\":8994:9005  returnValue */\n      dup1\n        /* \"@openzeppelin/contracts/token/ERC20/utils/SafeERC20.sol\":9009:9010  1 */\n      0x01\n        /* \"@openzeppelin/contracts/token/ERC20/utils/SafeERC20.sol\":8994:9010  returnValue != 1 */\n      eq\n      iszero\n        /* \"@openzeppelin/contracts/token/ERC20/utils/SafeERC20.sol\":8942:9010  returnSize == 0 ? address(token).code.length == 0 : returnValue != 1 */\n      jump(tag_97)\n    tag_96:\n      sub(shl(0xa0, 0x01), 0x01)\n        /* \"@openzeppelin/contracts/token/ERC20/utils/SafeERC20.sol\":8960:8986  address(token).code.length */\n      dup5\n      and\n      extcodesize\n        /* \"@openzeppelin/contracts/token/ERC20/utils/SafeERC20.sol\":8960:8991  address(token).code.length == 0 */\n      iszero\n        /* \"@openzeppelin/contracts/token/ERC20/utils/SafeERC20.sol\":8942:9010  returnSize == 0 ? address(token).code.length == 0 : returnValue != 1 */\n    tag_97:\n        /* \"@openzeppelin/contracts/token/ERC20/utils/SafeERC20.sol\":8938:9084  if (returnSize == 0 ? address(token).code.length == 0 : returnValue != 1) {... */\n      iszero\n      tag_87\n      jumpi\n        /* \"@openzeppelin/contracts/token/ERC20/utils/SafeERC20.sol\":9033:9073  SafeERC20FailedOperation(address(token)) */\n      mload(0x40)\n      shl(0xe0, 0x5274afe7)\n      dup2\n      mstore\n      sub(shl(0xa0, 0x01), 0x01)\n        /* \"#utility.yul\":178:210   */\n      dup6\n      and\n        /* \"@openzeppelin/contracts/token/ERC20/utils/SafeERC20.sol\":9033:9073  SafeERC20FailedOperation(address(token)) */\n      0x04\n      dup3\n      add\n        /* \"#utility.yul\":160:211   */\n      mstore\n        /* \"#utility.yul\":133:151   */\n      0x24\n      add\n        /* \"@openzeppelin/contracts/token/ERC20/utils/SafeERC20.sol\":9033:9073  SafeERC20FailedOperation(address(token)) */\n      tag_35\n        /* \"#utility.yul\":14:217   */\n      jump\n        /* \"#utility.yul\":222:353   */\n    tag_100:\n      sub(shl(0xa0, 0x01), 0x01)\n        /* \"#utility.yul\":297:328   */\n      dup2\n      and\n        /* \"#utility.yul\":287:329   */\n      dup2\n      eq\n        /* \"#utility.yul\":277:347   */\n      tag_104\n      jumpi\n        /* \"#utility.yul\":343:344   */\n      0x00\n        /* \"#utility.yul\":340:341   */\n      0x00\n        /* \"#utility.yul\":333:345   */\n      revert\n        /* \"#utility.yul\":277:347   */\n    tag_104:\n        /* \"#utility.yul\":222:353   */\n      pop\n      jump\t// out\n        /* \"#utility.yul\":358:966   */\n    tag_15:\n        /* \"#utility.yul\":444:450   */\n      0x00\n        /* \"#utility.yul\":452:458   */\n      0x00\n        /* \"#utility.yul\":460:466   */\n      0x00\n        /* \"#utility.yul\":468:474   */\n      0x00\n        /* \"#utility.yul\":521:524   */\n      0x80\n        /* \"#utility.yul\":509:518   */\n      dup6\n        /* \"#utility.yul\":500:507   */\n      dup8\n        /* \"#utility.yul\":496:519   */\n      sub\n        /* \"#utility.yul\":492:525   */\n      slt\n        /* \"#utility.yul\":489:542   */\n      iszero\n      tag_106\n      jumpi\n        /* \"#utility.yul\":538:539   */\n      0x00\n        /* \"#utility.yul\":535:536   */\n      0x00\n        /* \"#utility.yul\":528:540   */\n      revert\n        /* \"#utility.yul\":489:542   */\n    tag_106:\n        /* \"#utility.yul\":583:606   */\n      dup5\n      calldataload\n      swap4\n      pop\n        /* \"#utility.yul\":703:705   */\n      0x20\n        /* \"#utility.yul\":688:706   */\n      dup6\n      add\n        /* \"#utility.yul\":675:707   */\n      calldataload\n      swap3\n      pop\n        /* \"#utility.yul\":806:808   */\n      0x40\n        /* \"#utility.yul\":791:809   */\n      dup6\n      add\n        /* \"#utility.yul\":778:810   */\n      calldataload\n      swap2\n      pop\n        /* \"#utility.yul\":888:890   */\n      0x60\n        /* \"#utility.yul\":873:891   */\n      dup6\n      add\n        /* \"#utility.yul\":860:892   */\n      calldataload\n        /* \"#utility.yul\":901:934   */\n      tag_107\n        /* \"#utility.yul\":860:892   */\n      dup2\n        /* \"#utility.yul\":901:934   */\n      tag_100\n      jump\t// in\n    tag_107:\n        /* \"#utility.yul\":358:966   */\n      swap4\n      swap7\n      swap3\n      swap6\n      pop\n      swap1\n      swap4\n      pop\n      pop\n      jump\t// out\n        /* \"#utility.yul\":1345:2163   */\n    tag_31:\n        /* \"#utility.yul\":1431:1437   */\n      0x00\n        /* \"#utility.yul\":1439:1445   */\n      0x00\n        /* \"#utility.yul\":1447:1453   */\n      0x00\n        /* \"#utility.yul\":1455:1461   */\n      0x00\n        /* \"#utility.yul\":1508:1510   */\n      0x60\n        /* \"#utility.yul\":1496:1505   */\n      dup6\n        /* \"#utility.yul\":1487:1494   */\n      dup8\n        /* \"#utility.yul\":1483:1506   */\n      sub\n        /* \"#utility.yul\":1479:1511   */\n      slt\n        /* \"#utility.yul\":1476:1528   */\n      iszero\n      tag_111\n      jumpi\n        /* \"#utility.yul\":1524:1525   */\n      0x00\n        /* \"#utility.yul\":1521:1522   */\n      0x00\n        /* \"#utility.yul\":1514:1526   */\n      revert\n        /* \"#utility.yul\":1476:1528   */\n    tag_111:\n        /* \"#utility.yul\":1569:1592   */\n      dup5\n      calldataload\n      swap4\n      pop\n        /* \"#utility.yul\":1689:1691   */\n      0x20\n        /* \"#utility.yul\":1674:1692   */\n      dup6\n      add\n        /* \"#utility.yul\":1661:1693   */\n      calldataload\n      swap3\n      pop\n        /* \"#utility.yul\":1770:1772   */\n      0x40\n        /* \"#utility.yul\":1755:1773   */\n      dup6\n      add\n        /* \"#utility.yul\":1742:1774   */\n      calldataload\n        /* \"#utility.yul\":1797:1815   */\n      0xffffffffffffffff\n        /* \"#utility.yul\":1786:1816   */\n      dup2\n      gt\n        /* \"#utility.yul\":1783:1833   */\n      iszero\n      tag_112\n      jumpi\n        /* \"#utility.yul\":1829:1830   */\n      0x00\n        /* \"#utility.yul\":1826:1827   */\n      0x00\n        /* \"#utility.yul\":1819:1831   */\n      revert\n        /* \"#utility.yul\":1783:1833   */\n    tag_112:\n        /* \"#utility.yul\":1852:1874   */\n      dup6\n      add\n        /* \"#utility.yul\":1905:1909   */\n      0x1f\n        /* \"#utility.yul\":1897:1910   */\n      dup2\n      add\n        /* \"#utility.yul\":1893:1920   */\n      dup8\n      sgt\n        /* \"#utility.yul\":1883:1938   */\n      tag_113\n      jumpi\n        /* \"#utility.yul\":1934:1935   */\n      0x00\n        /* \"#utility.yul\":1931:1932   */\n      0x00\n        /* \"#utility.yul\":1924:1936   */\n      revert\n        /* \"#utility.yul\":1883:1938   */\n    tag_113:\n        /* \"#utility.yul\":1974:1976   */\n      dup1\n        /* \"#utility.yul\":1961:1977   */\n      calldataload\n        /* \"#utility.yul\":2000:2018   */\n      0xffffffffffffffff\n        /* \"#utility.yul\":1992:1998   */\n      dup2\n        /* \"#utility.yul\":1989:2019   */\n      gt\n        /* \"#utility.yul\":1986:2036   */\n      iszero\n      tag_114\n      jumpi\n        /* \"#utility.yul\":2032:2033   */\n      0x00\n        /* \"#utility.yul\":2029:2030   */\n      0x00\n        /* \"#utility.yul\":2022:2034   */\n      revert\n        /* \"#utility.yul\":1986:2036   */\n    tag_114:\n        /* \"#utility.yul\":2077:2084   */\n      dup8\n        /* \"#utility.yul\":2072:2074   */\n      0x20\n        /* \"#utility.yul\":2063:2069   */\n      dup3\n        /* \"#utility.yul\":2059:2061   */\n      dup5\n        /* \"#utility.yul\":2055:2070   */\n      add\n        /* \"#utility.yul\":2051:2075   */\n      add\n        /* \"#utility.yul\":2048:2085   */\n      gt\n        /* \"#utility.yul\":2045:2102   */\n      iszero\n      tag_115\n      jumpi\n        /* \"#utility.yul\":2098:2099   */\n      0x00\n        /* \"#utility.yul\":2095:2096   */\n      0x00\n        /* \"#utility.yul\":2088:2100   */\n      revert\n        /* \"#utility.yul\":2045:2102   */\n    tag_115:\n        /* \"#utility.yul\":1345:2163   */\n      swap5\n      swap8\n      swap4\n      swap7\n      pop\n        /* \"#utility.yul\":2129:2131   */\n      0x20\n        /* \"#utility.yul\":2121:2132   */\n      add\n      swap5\n      pop\n      pop\n      pop\n        /* \"#utility.yul\":1345:2163   */\n      jump\t// out\n        /* \"#utility.yul\":3146:3423   */\n    tag_47:\n        /* \"#utility.yul\":3213:3219   */\n      0x00\n        /* \"#utility.yul\":3266:3268   */\n      0x20\n        /* \"#utility.yul\":3254:3263   */\n      dup3\n        /* \"#utility.yul\":3245:3252   */\n      dup5\n        /* \"#utility.yul\":3241:3264   */\n      sub\n        /* \"#utility.yul\":3237:3269   */\n      slt\n        /* \"#utility.yul\":3234:3286   */\n      iszero\n      tag_120\n      jumpi\n        /* \"#utility.yul\":3282:3283   */\n      0x00\n        /* \"#utility.yul\":3279:3280   */\n      0x00\n        /* \"#utility.yul\":3272:3284   */\n      revert\n        /* \"#utility.yul\":3234:3286   */\n    tag_120:\n        /* \"#utility.yul\":3314:3323   */\n      dup2\n        /* \"#utility.yul\":3308:3324   */\n      mload\n        /* \"#utility.yul\":3367:3372   */\n      dup1\n        /* \"#utility.yul\":3360:3373   */\n      iszero\n        /* \"#utility.yul\":3353:3374   */\n      iszero\n        /* \"#utility.yul\":3346:3351   */\n      dup2\n        /* \"#utility.yul\":3343:3375   */\n      eq\n        /* \"#utility.yul\":3333:3393   */\n      tag_121\n      jumpi\n        /* \"#utility.yul\":3389:3390   */\n      0x00\n        /* \"#utility.yul\":3386:3387   */\n      0x00\n        /* \"#utility.yul\":3379:3391   */\n      revert\n        /* \"#utility.yul\":3333:3393   */\n    tag_121:\n        /* \"#utility.yul\":3412:3417   */\n      swap4\n        /* \"#utility.yul\":3146:3423   */\n      swap3\n      pop\n      pop\n      pop\n      jump\t// out\n        /* \"#utility.yul\":3428:4194   */\n    tag_50:\n        /* \"#utility.yul\":3708:3709   */\n      0x01\n        /* \"#utility.yul\":3704:3705   */\n      dup1\n        /* \"#utility.yul\":3699:3702   */\n      0xa0\n        /* \"#utility.yul\":3695:3706   */\n      shl\n        /* \"#utility.yul\":3691:3710   */\n      sub\n        /* \"#utility.yul\":3683:3689   */\n      dup7\n        /* \"#utility.yul\":3679:3711   */\n      and\n        /* \"#utility.yul\":3668:3677   */\n      dup2\n        /* \"#utility.yul\":3661:3712   */\n      mstore\n        /* \"#utility.yul\":3762:3768   */\n      dup5\n        /* \"#utility.yul\":3755:3769   */\n      iszero\n        /* \"#utility.yul\":3748:3770   */\n      iszero\n        /* \"#utility.yul\":3743:3745   */\n      0x20\n        /* \"#utility.yul\":3732:3741   */\n      dup3\n        /* \"#utility.yul\":3728:3746   */\n      add\n        /* \"#utility.yul\":3721:3771   */\n      mstore\n        /* \"#utility.yul\":3807:3813   */\n      dup4\n        /* \"#utility.yul\":3802:3804   */\n      0x40\n        /* \"#utility.yul\":3791:3800   */\n      dup3\n        /* \"#utility.yul\":3787:3805   */\n      add\n        /* \"#utility.yul\":3780:3814   */\n      mstore\n        /* \"#utility.yul\":3879:3880   */\n      0x01\n        /* \"#utility.yul\":3875:3876   */\n      dup1\n        /* \"#utility.yul\":3870:3873   */\n      0xa0\n        /* \"#utility.yul\":3866:3877   */\n      shl\n        /* \"#utility.yul\":3862:3881   */\n      sub\n        /* \"#utility.yul\":3854:3860   */\n      dup4\n        /* \"#utility.yul\":3850:3882   */\n      and\n        /* \"#utility.yul\":3845:3847   */\n      0x60\n        /* \"#utility.yul\":3834:3843   */\n      dup3\n        /* \"#utility.yul\":3830:3848   */\n      add\n        /* \"#utility.yul\":3823:3883   */\n      mstore\n        /* \"#utility.yul\":3920:3923   */\n      0xa0\n        /* \"#utility.yul\":3914:3917   */\n      0x80\n        /* \"#utility.yul\":3903:3912   */\n      dup3\n        /* \"#utility.yul\":3899:3918   */\n      add\n        /* \"#utility.yul\":3892:3924   */\n      mstore\n        /* \"#utility.yul\":3642:3646   */\n      0x00\n        /* \"#utility.yul\":3953:3959   */\n      dup3\n        /* \"#utility.yul\":3947:3960   */\n      mload\n        /* \"#utility.yul\":3997:4003   */\n      dup1\n        /* \"#utility.yul\":3991:3994   */\n      0xa0\n        /* \"#utility.yul\":3980:3989   */\n      dup5\n        /* \"#utility.yul\":3976:3995   */\n      add\n        /* \"#utility.yul\":3969:4004   */\n      mstore\n        /* \"#utility.yul\":4057:4063   */\n      dup1\n        /* \"#utility.yul\":4052:4054   */\n      0x20\n        /* \"#utility.yul\":4044:4050   */\n      dup6\n        /* \"#utility.yul\":4040:4055   */\n      add\n        /* \"#utility.yul\":4034:4037   */\n      0xc0\n        /* \"#utility.yul\":4023:4032   */\n      dup6\n        /* \"#utility.yul\":4019:4038   */\n      add\n        /* \"#utility.yul\":4013:4064   */\n      mcopy\n        /* \"#utility.yul\":4114:4115   */\n      0x00\n        /* \"#utility.yul\":4108:4111   */\n      0xc0\n        /* \"#utility.yul\":4099:4105   */\n      dup3\n        /* \"#utility.yul\":4088:4097   */\n      dup6\n        /* \"#utility.yul\":4084:4106   */\n      add\n        /* \"#utility.yul\":4080:4112   */\n      add\n        /* \"#utility.yul\":4073:4116   */\n      mstore\n        /* \"#utility.yul\":4184:4187   */\n      0xc0\n        /* \"#utility.yul\":4177:4179   */\n      0x1f\n        /* \"#utility.yul\":4173:4180   */\n      not\n        /* \"#utility.yul\":4168:4170   */\n      0x1f\n        /* \"#utility.yul\":4160:4166   */\n      dup4\n        /* \"#utility.yul\":4156:4171   */\n      add\n        /* \"#utility.yul\":4152:4181   */\n      and\n        /* \"#utility.yul\":4141:4150   */\n      dup5\n        /* \"#utility.yul\":4137:4182   */\n      add\n        /* \"#utility.yul\":4133:4188   */\n      add\n        /* \"#utility.yul\":4125:4188   */\n      swap2\n      pop\n      pop\n        /* \"#utility.yul\":3428:4194   */\n      swap7\n      swap6\n      pop\n      pop\n      pop\n      pop\n      pop\n      pop\n      jump\t// out\n        /* \"#utility.yul\":4199:4540   */\n    tag_54:\n        /* \"#utility.yul\":4276:4282   */\n      0x00\n        /* \"#utility.yul\":4284:4290   */\n      0x00\n        /* \"#utility.yul\":4337:4339   */\n      0x40\n        /* \"#utility.yul\":4325:4334   */\n      dup4\n        /* \"#utility.yul\":4316:4323   */\n      dup6\n        /* \"#utility.yul\":4312:4335   */\n      sub\n        /* \"#utility.yul\":4308:4340   */\n      slt\n        /* \"#utility.yul\":4305:4357   */\n      iszero\n      tag_124\n      jumpi\n        /* \"#utility.yul\":4353:4354   */\n      0x00\n        /* \"#utility.yul\":4350:4351   */\n      0x00\n        /* \"#utility.yul\":4343:4355   */\n      revert\n        /* \"#utility.yul\":4305:4357   */\n    tag_124:\n      pop\n      pop\n        /* \"#utility.yul\":4398:4414   */\n      dup1\n      mload\n        /* \"#utility.yul\":4504:4506   */\n      0x20\n        /* \"#utility.yul\":4489:4507   */\n      swap1\n      swap2\n      add\n        /* \"#utility.yul\":4483:4508   */\n      mload\n        /* \"#utility.yul\":4398:4414   */\n      swap1\n      swap3\n        /* \"#utility.yul\":4483:4508   */\n      swap1\n      swap2\n      pop\n        /* \"#utility.yul\":4199:4540   */\n      jump\t// out\n        /* \"#utility.yul\":4545:4778   */\n    tag_57:\n        /* \"#utility.yul\":4580:4583   */\n      0x00\n      shl(0xff, 0x01)\n        /* \"#utility.yul\":4601:4623   */\n      dup3\n      add\n        /* \"#utility.yul\":4598:4743   */\n      tag_126\n      jumpi\n        /* \"#utility.yul\":4665:4675   */\n      0x4e487b71\n        /* \"#utility.yul\":4660:4663   */\n      0xe0\n        /* \"#utility.yul\":4656:4676   */\n      shl\n        /* \"#utility.yul\":4653:4654   */\n      0x00\n        /* \"#utility.yul\":4646:4677   */\n      mstore\n        /* \"#utility.yul\":4700:4704   */\n      0x11\n        /* \"#utility.yul\":4697:4698   */\n      0x04\n        /* \"#utility.yul\":4690:4705   */\n      mstore\n        /* \"#utility.yul\":4728:4732   */\n      0x24\n        /* \"#utility.yul\":4725:4726   */\n      0x00\n        /* \"#utility.yul\":4718:4733   */\n      revert\n        /* \"#utility.yul\":4598:4743   */\n    tag_126:\n      pop\n        /* \"#utility.yul\":4763:4764   */\n      0x00\n        /* \"#utility.yul\":4759:4772   */\n      sub\n      swap1\n        /* \"#utility.yul\":4545:4778   */\n      jump\t// out\n        /* \"#utility.yul\":5734:6109   */\n    tag_72:\n        /* \"#utility.yul\":5810:5816   */\n      0x00\n        /* \"#utility.yul\":5818:5824   */\n      0x00\n        /* \"#utility.yul\":5871:5873   */\n      0x40\n        /* \"#utility.yul\":5859:5868   */\n      dup4\n        /* \"#utility.yul\":5850:5857   */\n      dup6\n        /* \"#utility.yul\":5846:5869   */\n      sub\n        /* \"#utility.yul\":5842:5874   */\n      slt\n        /* \"#utility.yul\":5839:5891   */\n      iszero\n      tag_131\n      jumpi\n        /* \"#utility.yul\":5887:5888   */\n      0x00\n        /* \"#utility.yul\":5884:5885   */\n      0x00\n        /* \"#utility.yul\":5877:5889   */\n      revert\n        /* \"#utility.yul\":5839:5891   */\n    tag_131:\n        /* \"#utility.yul\":5926:5935   */\n      dup3\n        /* \"#utility.yul\":5913:5936   */\n      calldataload\n        /* \"#utility.yul\":5945:5976   */\n      tag_132\n        /* \"#utility.yul\":5970:5975   */\n      dup2\n        /* \"#utility.yul\":5945:5976   */\n      tag_100\n      jump\t// in\n    tag_132:\n        /* \"#utility.yul\":5995:6000   */\n      swap5\n        /* \"#utility.yul\":6073:6075   */\n      0x20\n        /* \"#utility.yul\":6058:6076   */\n      swap4\n      swap1\n      swap4\n      add\n        /* \"#utility.yul\":6045:6077   */\n      calldataload\n      swap4\n      pop\n      pop\n      pop\n        /* \"#utility.yul\":5734:6109   */\n      jump\t// out\n\n    auxdata: 0xa26469706673582212201c7f899d8cdbf26dd0ffe83f580438f626a1ee03a9005d7242036c0b48aa259964736f6c634300081d0033\n}\n",
				"bytecode": {
					"linkReferences": {},
					"object": "60c060405234801561000f575f5ffd5b50604051610a8f380380610a8f83398101604081905261002e91610046565b6001600160a01b03909116608052151560a05261008d565b5f5f60408385031215610057575f5ffd5b82516001600160a01b038116811461006d575f5ffd5b60208401519092508015158114610082575f5ffd5b809150509250929050565b60805160a0516109b16100de5f395f81816101040152818161030b0152818161037e01526104ee01525f8181606901528181610216015281816102dc0152818161047a015261067101526109b15ff3fe608060405234801561000f575f5ffd5b5060043610610060575f3560e01c806316f0115b1461006457806377fc0617146100a857806389a30271146100c9578063a0eeb39a146100e4578063b25b6bd7146100ff578063fa461e3314610136575b5f5ffd5b61008b7f000000000000000000000000000000000000000000000000000000000000000081565b6040516001600160a01b0390911681526020015b60405180910390f35b6100bb6100b63660046107c6565b61014b565b60405190815260200161009f565b61008b730b2c639c533813f4aa9d7837caf62653d097ff8581565b61008b739560e827af36c94d2ac33a39bce1fe78631088db81565b6101267f000000000000000000000000000000000000000000000000000000000000000081565b604051901515815260200161009f565b610149610144366004610804565b61046f565b005b5f428310156101995760405162461bcd60e51b815260206004820152601560248201527414ddd85c08191958591b1a5b9948195e1c1a5c9959605a1b60448201526064015b60405180910390fd5b5f85116101df5760405162461bcd60e51b8152602060048201526014602482015273125b9d985b1a59081a5b9c1d5d08185b5bdd5b9d60621b6044820152606401610190565b6101ff730b2c639c533813f4aa9d7837caf62653d097ff853330886106a0565b60405163095ea7b360e01b81526001600160a01b037f000000000000000000000000000000000000000000000000000000000000000016600482015260248101869052730b2c639c533813f4aa9d7837caf62653d097ff859063095ea7b3906044016020604051808303815f875af115801561027d573d5f5f3e3d5ffd5b505050506040513d601f19601f820116820180604052508101906102a19190610880565b50604080513360208201528082018690528151808203830181526060820192839052630251596160e31b9092525f9081906001600160a01b037f0000000000000000000000000000000000000000000000000000000000000000169063128acb08906103399030907f0000000000000000000000000000000000000000000000000000000000000000908d908b908a906064016108a6565b60408051808303815f875af1158015610354573d5f5f3e3d5ffd5b505050506040513d601f19601f820116820180604052508101906103789190610909565b915091507f00000000000000000000000000000000000000000000000000000000000000006103af576103aa8261092b565b6103b8565b6103b88161092b565b93508684101561040a5760405162461bcd60e51b815260206004820152601a60248201527f496e73756666696369656e74206f757470757420616d6f756e740000000000006044820152606401610190565b610429739560e827af36c94d2ac33a39bce1fe78631088db338661070d565b604080518981526020810186905233917f2d043ce009ff53fd444b0f4f5ff4c3f4ee293265203f77f156eeb33b595dfc4f910160405180910390a2505050949350505050565b336001600160a01b037f000000000000000000000000000000000000000000000000000000000000000016146104d85760405162461bcd60e51b815260206004820152600e60248201526d24b73b30b634b21031b0b63632b960911b6044820152606401610190565b5f806104e683850185610951565b915091505f5f7f0000000000000000000000000000000000000000000000000000000000000000156105bc575f88136105585760405162461bcd60e51b8152602060048201526014602482015273496e76616c696420616d6f756e743044656c746160601b6044820152606401610190565b5f871261059e5760405162461bcd60e51b8152602060048201526014602482015273496e76616c696420616d6f756e743144656c746160601b6044820152606401610190565b50869050730b2c639c533813f4aa9d7837caf62653d097ff85610662565b5f87136106025760405162461bcd60e51b8152602060048201526014602482015273496e76616c696420616d6f756e743144656c746160601b6044820152606401610190565b5f88126106485760405162461bcd60e51b8152602060048201526014602482015273496e76616c696420616d6f756e743044656c746160601b6044820152606401610190565b50859050739560e827af36c94d2ac33a39bce1fe78631088db5b6106966001600160a01b0382167f00000000000000000000000000000000000000000000000000000000000000008461070d565b5050505050505050565b6040516001600160a01b0384811660248301528381166044830152606482018390526107079186918216906323b872dd906084015b604051602081830303815290604052915060e01b6020820180516001600160e01b038381831617835250505050610743565b50505050565b6040516001600160a01b0383811660248301526044820183905261073e91859182169063a9059cbb906064016106d5565b505050565b5f5f60205f8451602086015f885af180610762576040513d5f823e3d81fd5b50505f513d91508115610779578060011415610786565b6001600160a01b0384163b155b1561070757604051635274afe760e01b81526001600160a01b0385166004820152602401610190565b6001600160a01b03811681146107c3575f5ffd5b50565b5f5f5f5f608085870312156107d9575f5ffd5b84359350602085013592506040850135915060608501356107f9816107af565b939692955090935050565b5f5f5f5f60608587031215610817575f5ffd5b8435935060208501359250604085013567ffffffffffffffff81111561083b575f5ffd5b8501601f8101871361084b575f5ffd5b803567ffffffffffffffff811115610861575f5ffd5b876020828401011115610872575f5ffd5b949793965060200194505050565b5f60208284031215610890575f5ffd5b8151801515811461089f575f5ffd5b9392505050565b60018060a01b0386168152841515602082015283604082015260018060a01b038316606082015260a060808201525f82518060a0840152806020850160c085015e5f60c0828501015260c0601f19601f8301168401019150509695505050505050565b5f5f6040838503121561091a575f5ffd5b505080516020909101519092909150565b5f600160ff1b820161094b57634e487b7160e01b5f52601160045260245ffd5b505f0390565b5f5f60408385031215610962575f5ffd5b823561096d816107af565b94602093909301359350505056fea26469706673582212201c7f899d8cdbf26dd0ffe83f580438f626a1ee03a9005d7242036c0b48aa259964736f6c634300081d0033",
					"opcodes": "PUSH1 0xC0 PUSH1 0x40 MSTORE CALLVALUE DUP1 ISZERO PUSH2 0xF JUMPI PUSH0 PUSH0 REVERT JUMPDEST POP PUSH1 0x40 MLOAD PUSH2 0xA8F CODESIZE SUB DUP1 PUSH2 0xA8F DUP4 CODECOPY DUP2 ADD PUSH1 0x40 DUP2 SWAP1 MSTORE PUSH2 0x2E SWAP2 PUSH2 0x46 JUMP JUMPDEST PUSH1 0x1 PUSH1 0x1 PUSH1 0xA0 SHL SUB SWAP1 SWAP2 AND PUSH1 0x80 MSTORE ISZERO ISZERO PUSH1 0xA0 MSTORE PUSH2 0x8D JUMP JUMPDEST PUSH0 PUSH0 PUSH1 0x40 DUP4 DUP6 SUB SLT ISZERO PUSH2 0x57 JUMPI PUSH0 PUSH0 REVERT JUMPDEST DUP3 MLOAD PUSH1 0x1 PUSH1 0x1 PUSH1 0xA0 SHL SUB DUP2 AND DUP2 EQ PUSH2 0x6D JUMPI PUSH0 PUSH0 REVERT JUMPDEST PUSH1 0x20 DUP5 ADD MLOAD SWAP1 SWAP3 POP DUP1 ISZERO ISZERO DUP2 EQ PUSH2 0x82 JUMPI PUSH0 PUSH0 REVERT JUMPDEST DUP1 SWAP2 POP POP SWAP3 POP SWAP3 SWAP1 POP JUMP JUMPDEST PUSH1 0x80 MLOAD PUSH1 0xA0 MLOAD PUSH2 0x9B1 PUSH2 0xDE PUSH0 CODECOPY PUSH0 DUP2 DUP2 PUSH2 0x104 ADD MSTORE DUP2 DUP2 PUSH2 0x30B ADD MSTORE DUP2 DUP2 PUSH2 0x37E ADD MSTORE PUSH2 0x4EE ADD MSTORE PUSH0 DUP2 DUP2 PUSH1 0x69 ADD MSTORE DUP2 DUP2 PUSH2 0x216 ADD MSTORE DUP2 DUP2 PUSH2 0x2DC ADD MSTORE DUP2 DUP2 PUSH2 0x47A ADD MSTORE PUSH2 0x671 ADD MSTORE PUSH2 0x9B1 PUSH0 RETURN INVALID PUSH1 0x80 PUSH1 0x40 MSTORE CALLVALUE DUP1 ISZERO PUSH2 0xF JUMPI PUSH0 PUSH0 REVERT JUMPDEST POP PUSH1 0x4 CALLDATASIZE LT PUSH2 0x60 JUMPI PUSH0 CALLDATALOAD PUSH1 0xE0 SHR DUP1 PUSH4 0x16F0115B EQ PUSH2 0x64 JUMPI DUP1 PUSH4 0x77FC0617 EQ PUSH2 0xA8 JUMPI DUP1 PUSH4 0x89A30271 EQ PUSH2 0xC9 JUMPI DUP1 PUSH4 0xA0EEB39A EQ PUSH2 0xE4 JUMPI DUP1 PUSH4 0xB25B6BD7 EQ PUSH2 0xFF JUMPI DUP1 PUSH4 0xFA461E33 EQ PUSH2 0x136 JUMPI JUMPDEST PUSH0 PUSH0 REVERT JUMPDEST PUSH2 0x8B PUSH32 0x0 DUP2 JUMP JUMPDEST PUSH1 0x40 MLOAD PUSH1 0x1 PUSH1 0x1 PUSH1 0xA0 SHL SUB SWAP1 SWAP2 AND DUP2 MSTORE PUSH1 0x20 ADD JUMPDEST PUSH1 0x40 MLOAD DUP1 SWAP2 SUB SWAP1 RETURN JUMPDEST PUSH2 0xBB PUSH2 0xB6 CALLDATASIZE PUSH1 0x4 PUSH2 0x7C6 JUMP JUMPDEST PUSH2 0x14B JUMP JUMPDEST PUSH1 0x40 MLOAD SWAP1 DUP2 MSTORE PUSH1 0x20 ADD PUSH2 0x9F JUMP JUMPDEST PUSH2 0x8B PUSH20 0xB2C639C533813F4AA9D7837CAF62653D097FF85 DUP2 JUMP JUMPDEST PUSH2 0x8B PUSH20 0x9560E827AF36C94D2AC33A39BCE1FE78631088DB DUP2 JUMP JUMPDEST PUSH2 0x126 PUSH32 0x0 DUP2 JUMP JUMPDEST PUSH1 0x40 MLOAD SWAP1 ISZERO ISZERO DUP2 MSTORE PUSH1 0x20 ADD PUSH2 0x9F JUMP JUMPDEST PUSH2 0x149 PUSH2 0x144 CALLDATASIZE PUSH1 0x4 PUSH2 0x804 JUMP JUMPDEST PUSH2 0x46F JUMP JUMPDEST STOP JUMPDEST PUSH0 TIMESTAMP DUP4 LT ISZERO PUSH2 0x199 JUMPI PUSH1 0x40 MLOAD PUSH3 0x461BCD PUSH1 0xE5 SHL DUP2 MSTORE PUSH1 0x20 PUSH1 0x4 DUP3 ADD MSTORE PUSH1 0x15 PUSH1 0x24 DUP3 ADD MSTORE PUSH21 0x14DDD85C08191958591B1A5B9948195E1C1A5C9959 PUSH1 0x5A SHL PUSH1 0x44 DUP3 ADD MSTORE PUSH1 0x64 ADD JUMPDEST PUSH1 0x40 MLOAD DUP1 SWAP2 SUB SWAP1 REVERT JUMPDEST PUSH0 DUP6 GT PUSH2 0x1DF JUMPI PUSH1 0x40 MLOAD PUSH3 0x461BCD PUSH1 0xE5 SHL DUP2 MSTORE PUSH1 0x20 PUSH1 0x4 DUP3 ADD MSTORE PUSH1 0x14 PUSH1 0x24 DUP3 ADD MSTORE PUSH20 0x125B9D985B1A59081A5B9C1D5D08185B5BDD5B9D PUSH1 0x62 SHL PUSH1 0x44 DUP3 ADD MSTORE PUSH1 0x64 ADD PUSH2 0x190 JUMP JUMPDEST PUSH2 0x1FF PUSH20 0xB2C639C533813F4AA9D7837CAF62653D097FF85 CALLER ADDRESS DUP9 PUSH2 0x6A0 JUMP JUMPDEST PUSH1 0x40 MLOAD PUSH4 0x95EA7B3 PUSH1 0xE0 SHL DUP2 MSTORE PUSH1 0x1 PUSH1 0x1 PUSH1 0xA0 SHL SUB PUSH32 0x0 AND PUSH1 0x4 DUP3 ADD MSTORE PUSH1 0x24 DUP2 ADD DUP7 SWAP1 MSTORE PUSH20 0xB2C639C533813F4AA9D7837CAF62653D097FF85 SWAP1 PUSH4 0x95EA7B3 SWAP1 PUSH1 0x44 ADD PUSH1 0x20 PUSH1 0x40 MLOAD DUP1 DUP4 SUB DUP2 PUSH0 DUP8 GAS CALL ISZERO DUP1 ISZERO PUSH2 0x27D JUMPI RETURNDATASIZE PUSH0 PUSH0 RETURNDATACOPY RETURNDATASIZE PUSH0 REVERT JUMPDEST POP POP POP POP PUSH1 0x40 MLOAD RETURNDATASIZE PUSH1 0x1F NOT PUSH1 0x1F DUP3 ADD AND DUP3 ADD DUP1 PUSH1 0x40 MSTORE POP DUP2 ADD SWAP1 PUSH2 0x2A1 SWAP2 SWAP1 PUSH2 0x880 JUMP JUMPDEST POP PUSH1 0x40 DUP1 MLOAD CALLER PUSH1 0x20 DUP3 ADD MSTORE DUP1 DUP3 ADD DUP7 SWAP1 MSTORE DUP2 MLOAD DUP1 DUP3 SUB DUP4 ADD DUP2 MSTORE PUSH1 0x60 DUP3 ADD SWAP3 DUP4 SWAP1 MSTORE PUSH4 0x2515961 PUSH1 0xE3 SHL SWAP1 SWAP3 MSTORE PUSH0 SWAP1 DUP2 SWAP1 PUSH1 0x1 PUSH1 0x1 PUSH1 0xA0 SHL SUB PUSH32 0x0 AND SWAP1 PUSH4 0x128ACB08 SWAP1 PUSH2 0x339 SWAP1 ADDRESS SWAP1 PUSH32 0x0 SWAP1 DUP14 SWAP1 DUP12 SWAP1 DUP11 SWAP1 PUSH1 0x64 ADD PUSH2 0x8A6 JUMP JUMPDEST PUSH1 0x40 DUP1 MLOAD DUP1 DUP4 SUB DUP2 PUSH0 DUP8 GAS CALL ISZERO DUP1 ISZERO PUSH2 0x354 JUMPI RETURNDATASIZE PUSH0 PUSH0 RETURNDATACOPY RETURNDATASIZE PUSH0 REVERT JUMPDEST POP POP POP POP PUSH1 0x40 MLOAD RETURNDATASIZE PUSH1 0x1F NOT PUSH1 0x1F DUP3 ADD AND DUP3 ADD DUP1 PUSH1 0x40 MSTORE POP DUP2 ADD SWAP1 PUSH2 0x378 SWAP2 SWAP1 PUSH2 0x909 JUMP JUMPDEST SWAP2 POP SWAP2 POP PUSH32 0x0 PUSH2 0x3AF JUMPI PUSH2 0x3AA DUP3 PUSH2 0x92B JUMP JUMPDEST PUSH2 0x3B8 JUMP JUMPDEST PUSH2 0x3B8 DUP2 PUSH2 0x92B JUMP JUMPDEST SWAP4 POP DUP7 DUP5 LT ISZERO PUSH2 0x40A JUMPI PUSH1 0x40 MLOAD PUSH3 0x461BCD PUSH1 0xE5 SHL DUP2 MSTORE PUSH1 0x20 PUSH1 0x4 DUP3 ADD MSTORE PUSH1 0x1A PUSH1 0x24 DUP3 ADD MSTORE PUSH32 0x496E73756666696369656E74206F757470757420616D6F756E74000000000000 PUSH1 0x44 DUP3 ADD MSTORE PUSH1 0x64 ADD PUSH2 0x190 JUMP JUMPDEST PUSH2 0x429 PUSH20 0x9560E827AF36C94D2AC33A39BCE1FE78631088DB CALLER DUP7 PUSH2 0x70D JUMP JUMPDEST PUSH1 0x40 DUP1 MLOAD DUP10 DUP2 MSTORE PUSH1 0x20 DUP2 ADD DUP7 SWAP1 MSTORE CALLER SWAP2 PUSH32 0x2D043CE009FF53FD444B0F4F5FF4C3F4EE293265203F77F156EEB33B595DFC4F SWAP2 ADD PUSH1 0x40 MLOAD DUP1 SWAP2 SUB SWAP1 LOG2 POP POP POP SWAP5 SWAP4 POP POP POP POP JUMP JUMPDEST CALLER PUSH1 0x1 PUSH1 0x1 PUSH1 0xA0 SHL SUB PUSH32 0x0 AND EQ PUSH2 0x4D8 JUMPI PUSH1 0x40 MLOAD PUSH3 0x461BCD PUSH1 0xE5 SHL DUP2 MSTORE PUSH1 0x20 PUSH1 0x4 DUP3 ADD MSTORE PUSH1 0xE PUSH1 0x24 DUP3 ADD MSTORE PUSH14 0x24B73B30B634B21031B0B63632B9 PUSH1 0x91 SHL PUSH1 0x44 DUP3 ADD MSTORE PUSH1 0x64 ADD PUSH2 0x190 JUMP JUMPDEST PUSH0 DUP1 PUSH2 0x4E6 DUP4 DUP6 ADD DUP6 PUSH2 0x951 JUMP JUMPDEST SWAP2 POP SWAP2 POP PUSH0 PUSH0 PUSH32 0x0 ISZERO PUSH2 0x5BC JUMPI PUSH0 DUP9 SGT PUSH2 0x558 JUMPI PUSH1 0x40 MLOAD PUSH3 0x461BCD PUSH1 0xE5 SHL DUP2 MSTORE PUSH1 0x20 PUSH1 0x4 DUP3 ADD MSTORE PUSH1 0x14 PUSH1 0x24 DUP3 ADD MSTORE PUSH20 0x496E76616C696420616D6F756E743044656C7461 PUSH1 0x60 SHL PUSH1 0x44 DUP3 ADD MSTORE PUSH1 0x64 ADD PUSH2 0x190 JUMP JUMPDEST PUSH0 DUP8 SLT PUSH2 0x59E JUMPI PUSH1 0x40 MLOAD PUSH3 0x461BCD PUSH1 0xE5 SHL DUP2 MSTORE PUSH1 0x20 PUSH1 0x4 DUP3 ADD MSTORE PUSH1 0x14 PUSH1 0x24 DUP3 ADD MSTORE PUSH20 0x496E76616C696420616D6F756E743144656C7461 PUSH1 0x60 SHL PUSH1 0x44 DUP3 ADD MSTORE PUSH1 0x64 ADD PUSH2 0x190 JUMP JUMPDEST POP DUP7 SWAP1 POP PUSH20 0xB2C639C533813F4AA9D7837CAF62653D097FF85 PUSH2 0x662 JUMP JUMPDEST PUSH0 DUP8 SGT PUSH2 0x602 JUMPI PUSH1 0x40 MLOAD PUSH3 0x461BCD PUSH1 0xE5 SHL DUP2 MSTORE PUSH1 0x20 PUSH1 0x4 DUP3 ADD MSTORE PUSH1 0x14 PUSH1 0x24 DUP3 ADD MSTORE PUSH20 0x496E76616C696420616D6F756E743144656C7461 PUSH1 0x60 SHL PUSH1 0x44 DUP3 ADD MSTORE PUSH1 0x64 ADD PUSH2 0x190 JUMP JUMPDEST PUSH0 DUP9 SLT PUSH2 0x648 JUMPI PUSH1 0x40 MLOAD PUSH3 0x461BCD PUSH1 0xE5 SHL DUP2 MSTORE PUSH1 0x20 PUSH1 0x4 DUP3 ADD MSTORE PUSH1 0x14 PUSH1 0x24 DUP3 ADD MSTORE PUSH20 0x496E76616C696420616D6F756E743044656C7461 PUSH1 0x60 SHL PUSH1 0x44 DUP3 ADD MSTORE PUSH1 0x64 ADD PUSH2 0x190 JUMP JUMPDEST POP DUP6 SWAP1 POP PUSH20 0x9560E827AF36C94D2AC33A39BCE1FE78631088DB JUMPDEST PUSH2 0x696 PUSH1 0x1 PUSH1 0x1 PUSH1 0xA0 SHL SUB DUP3 AND PUSH32 0x0 DUP5 PUSH2 0x70D JUMP JUMPDEST POP POP POP POP POP POP POP POP JUMP JUMPDEST PUSH1 0x40 MLOAD PUSH1 0x1 PUSH1 0x1 PUSH1 0xA0 SHL SUB DUP5 DUP2 AND PUSH1 0x24 DUP4 ADD MSTORE DUP4 DUP2 AND PUSH1 0x44 DUP4 ADD MSTORE PUSH1 0x64 DUP3 ADD DUP4 SWAP1 MSTORE PUSH2 0x707 SWAP2 DUP7 SWAP2 DUP3 AND SWAP1 PUSH4 0x23B872DD SWAP1 PUSH1 0x84 ADD JUMPDEST PUSH1 0x40 MLOAD PUSH1 0x20 DUP2 DUP4 SUB SUB DUP2 MSTORE SWAP1 PUSH1 0x40 MSTORE SWAP2 POP PUSH1 0xE0 SHL PUSH1 0x20 DUP3 ADD DUP1 MLOAD PUSH1 0x1 PUSH1 0x1 PUSH1 0xE0 SHL SUB DUP4 DUP2 DUP4 AND OR DUP4 MSTORE POP POP POP POP PUSH2 0x743 JUMP JUMPDEST POP POP POP POP JUMP JUMPDEST PUSH1 0x40 MLOAD PUSH1 0x1 PUSH1 0x1 PUSH1 0xA0 SHL SUB DUP4 DUP2 AND PUSH1 0x24 DUP4 ADD MSTORE PUSH1 0x44 DUP3 ADD DUP4 SWAP1 MSTORE PUSH2 0x73E SWAP2 DUP6 SWAP2 DUP3 AND SWAP1 PUSH4 0xA9059CBB SWAP1 PUSH1 0x64 ADD PUSH2 0x6D5 JUMP JUMPDEST POP POP POP JUMP JUMPDEST PUSH0 PUSH0 PUSH1 0x20 PUSH0 DUP5 MLOAD PUSH1 0x20 DUP7 ADD PUSH0 DUP9 GAS CALL DUP1 PUSH2 0x762 JUMPI PUSH1 0x40 MLOAD RETURNDATASIZE PUSH0 DUP3 RETURNDATACOPY RETURNDATASIZE DUP2 REVERT JUMPDEST POP POP PUSH0 MLOAD RETURNDATASIZE SWAP2 POP DUP2 ISZERO PUSH2 0x779 JUMPI DUP1 PUSH1 0x1 EQ ISZERO PUSH2 0x786 JUMP JUMPDEST PUSH1 0x1 PUSH1 0x1 PUSH1 0xA0 SHL SUB DUP5 AND EXTCODESIZE ISZERO JUMPDEST ISZERO PUSH2 0x707 JUMPI PUSH1 0x40 MLOAD PUSH4 0x5274AFE7 PUSH1 0xE0 SHL DUP2 MSTORE PUSH1 0x1 PUSH1 0x1 PUSH1 0xA0 SHL SUB DUP6 AND PUSH1 0x4 DUP3 ADD MSTORE PUSH1 0x24 ADD PUSH2 0x190 JUMP JUMPDEST PUSH1 0x1 PUSH1 0x1 PUSH1 0xA0 SHL SUB DUP2 AND DUP2 EQ PUSH2 0x7C3 JUMPI PUSH0 PUSH0 REVERT JUMPDEST POP JUMP JUMPDEST PUSH0 PUSH0 PUSH0 PUSH0 PUSH1 0x80 DUP6 DUP8 SUB SLT ISZERO PUSH2 0x7D9 JUMPI PUSH0 PUSH0 REVERT JUMPDEST DUP5 CALLDATALOAD SWAP4 POP PUSH1 0x20 DUP6 ADD CALLDATALOAD SWAP3 POP PUSH1 0x40 DUP6 ADD CALLDATALOAD SWAP2 POP PUSH1 0x60 DUP6 ADD CALLDATALOAD PUSH2 0x7F9 DUP2 PUSH2 0x7AF JUMP JUMPDEST SWAP4 SWAP7 SWAP3 SWAP6 POP SWAP1 SWAP4 POP POP JUMP JUMPDEST PUSH0 PUSH0 PUSH0 PUSH0 PUSH1 0x60 DUP6 DUP8 SUB SLT ISZERO PUSH2 0x817 JUMPI PUSH0 PUSH0 REVERT JUMPDEST DUP5 CALLDATALOAD SWAP4 POP PUSH1 0x20 DUP6 ADD CALLDATALOAD SWAP3 POP PUSH1 0x40 DUP6 ADD CALLDATALOAD PUSH8 0xFFFFFFFFFFFFFFFF DUP2 GT ISZERO PUSH2 0x83B JUMPI PUSH0 PUSH0 REVERT JUMPDEST DUP6 ADD PUSH1 0x1F DUP2 ADD DUP8 SGT PUSH2 0x84B JUMPI PUSH0 PUSH0 REVERT JUMPDEST DUP1 CALLDATALOAD PUSH8 0xFFFFFFFFFFFFFFFF DUP2 GT ISZERO PUSH2 0x861 JUMPI PUSH0 PUSH0 REVERT JUMPDEST DUP8 PUSH1 0x20 DUP3 DUP5 ADD ADD GT ISZERO PUSH2 0x872 JUMPI PUSH0 PUSH0 REVERT JUMPDEST SWAP5 SWAP8 SWAP4 SWAP7 POP PUSH1 0x20 ADD SWAP5 POP POP POP JUMP JUMPDEST PUSH0 PUSH1 0x20 DUP3 DUP5 SUB SLT ISZERO PUSH2 0x890 JUMPI PUSH0 PUSH0 REVERT JUMPDEST DUP2 MLOAD DUP1 ISZERO ISZERO DUP2 EQ PUSH2 0x89F JUMPI PUSH0 PUSH0 REVERT JUMPDEST SWAP4 SWAP3 POP POP POP JUMP JUMPDEST PUSH1 0x1 DUP1 PUSH1 0xA0 SHL SUB DUP7 AND DUP2 MSTORE DUP5 ISZERO ISZERO PUSH1 0x20 DUP3 ADD MSTORE DUP4 PUSH1 0x40 DUP3 ADD MSTORE PUSH1 0x1 DUP1 PUSH1 0xA0 SHL SUB DUP4 AND PUSH1 0x60 DUP3 ADD MSTORE PUSH1 0xA0 PUSH1 0x80 DUP3 ADD MSTORE PUSH0 DUP3 MLOAD DUP1 PUSH1 0xA0 DUP5 ADD MSTORE DUP1 PUSH1 0x20 DUP6 ADD PUSH1 0xC0 DUP6 ADD MCOPY PUSH0 PUSH1 0xC0 DUP3 DUP6 ADD ADD MSTORE PUSH1 0xC0 PUSH1 0x1F NOT PUSH1 0x1F DUP4 ADD AND DUP5 ADD ADD SWAP2 POP POP SWAP7 SWAP6 POP POP POP POP POP POP JUMP JUMPDEST PUSH0 PUSH0 PUSH1 0x40 DUP4 DUP6 SUB SLT ISZERO PUSH2 0x91A JUMPI PUSH0 PUSH0 REVERT JUMPDEST POP POP DUP1 MLOAD PUSH1 0x20 SWAP1 SWAP2 ADD MLOAD SWAP1 SWAP3 SWAP1 SWAP2 POP JUMP JUMPDEST PUSH0 PUSH1 0x1 PUSH1 0xFF SHL DUP3 ADD PUSH2 0x94B JUMPI PUSH4 0x4E487B71 PUSH1 0xE0 SHL PUSH0 MSTORE PUSH1 0x11 PUSH1 0x4 MSTORE PUSH1 0x24 PUSH0 REVERT JUMPDEST POP PUSH0 SUB SWAP1 JUMP JUMPDEST PUSH0 PUSH0 PUSH1 0x40 DUP4 DUP6 SUB SLT ISZERO PUSH2 0x962 JUMPI PUSH0 PUSH0 REVERT JUMPDEST DUP3 CALLDATALOAD PUSH2 0x96D DUP2 PUSH2 0x7AF JUMP JUMPDEST SWAP5 PUSH1 0x20 SWAP4 SWAP1 SWAP4 ADD CALLDATALOAD SWAP4 POP POP POP JUMP INVALID LOG2 PUSH5 0x6970667358 0x22 SLT KECCAK256 SHR PUSH32 0x899D8CDBF26DD0FFE83F580438F626A1EE03A9005D7242036C0B48AA25996473 PUSH16 0x6C634300081D00330000000000000000 "
				},
				"gasEstimates": {
					"creation": {
						"codeDepositCost": "496200",
						"executionCost": "infinite",
						"totalCost": "infinite"
					},
					"external": {
						"USDC()": "226",
						"VELO()": "248",
						"pool()": "infinite",
						"swapExactInputSingle(uint256,uint256,uint256,uint160)": "infinite",
						"uniswapV3SwapCallback(int256,int256,bytes)": "infinite",
						"zeroForOne()": "infinite"
					}
				},
				"methodIdentifiers": {
					"USDC()": "89a30271",
					"VELO()": "a0eeb39a",
					"pool()": "16f0115b",
					"swapExactInputSingle(uint256,uint256,uint256,uint160)": "77fc0617",
					"uniswapV3SwapCallback(int256,int256,bytes)": "fa461e33",
					"zeroForOne()": "b25b6bd7"
				}
			},
			"storageLayout": {
				"storage": [],
				"types": null
			},
			"userdoc": {
				"kind": "user",
				"methods": {
					"swapExactInputSingle(uint256,uint256,uint256,uint160)": {
						"notice": "Swaps a fixed amount of USDC for VELO directly with the pool"
					},
					"uniswapV3SwapCallback(int256,int256,bytes)": {
						"notice": "Callback function called by the pool during the swap"
					}
				},
				"version": 1
			}
		}
	}
}